:020000040000FA
:100000000080001051040000590400005B0400004F
:100010005D0400005F0400006104000000000000B7
:100020000000000000000000000000006304000069
:10003000650400000000000067040000690400007F
:100040006B0400006B0400006B0400006B040000F4
:100050006B0400006B0400006B0400006B040000E4
:100060006B0400006B0400006B0400006B040000D4
:100070006B0400006B0400006B0400006B040000C4
:100080006B0400006B0400006B0400006B040000B4
:100090006B0400006B0400006B0400006B040000A4
:1000A0006B0400006B0400006B0400006B04000094
:1000B0006B0400006B0400006B0400006B04000084
:1000C0006B040000000000000000000000000000C1
:1000D0000000000000000000000000000000000020
:1000E0000000000000000000000000000000000010
:1000F0000000000000000000000000000000000000
:1001000000000000000000000000000000000000EF
:1002F000000000000000000000000000FFFFFFFF02
:1003000000F002F800F096F80AA090E8000C824491
:100310008344AAF10107DA4501D100F08BF8AFF26E
:10032000090EBAE80F0013F0010F18BFFB1A43F0D3
:1003300001031847C8520000E8520000103A24BFD9
:1003400078C878C1FAD8520724BF30C830C144BF3A
:1003500004680C607047000000230024002500267C
:10036000103A28BF78C1FBD8520728BF30C148BF18
:100370000B6070476E2900F07B84702900F0E787DE
:10038000662904F0A285652904F09F85672904F099
:100390009C85612904F09B8503681B0A28BF41F0F6
:1003A0008001692900F02884642900F025847529DA
:1003B00000F022846F2900F07487782900F0B38759
:1003C000E92900F00F87E42900F00C87F52900F0F7
:1003D0000987EF2900F07187F82900F0B2870368D8
:1003E000DB0928BF41F08001632901F01D847329D6
:1003F00001F02284E32901F02D84F32901F03284F5
:10040000002070471FB59DE8030000F051FB01F08C
:1004100087F904000020002104F012FA401C6060FB
:100420000020002104F0F6F9E06001F0B7F800F0D8
:1004300011FB1FBD02F090FB114603B402F0A0FBBC
:1004400003BCFFF7DFFF02F024FA02F0EFFE00002A
:100450000648804706480047FEE7FEE7FEE7FEE75E
:10046000FEE7FEE7FEE7FEE7FEE7FEE7A128000065
:1004700001030000004870478003001070B5064675
:1004800000F0FAFA056806F10B0020F00704B44208
:100490009CBF002070BD2B466A68BAB11068A042AC
:1004A00010D304F1080188423CBF5068586007D35C
:1004B0005168101941601168091B0160586014608F
:1004C000101D70BD13465268002AE7D12146284608
:1004D00000F0DAFA0028DED170BD70B50446051FC1
:1004E00000F0CAFA0068002C14BF446870BD002CEC
:1004F00018BFAC423CBF20466468F8D301680A18B4
:10050000AA4218BF456003D12A680546114401601C
:1005100028684119A1421CBF6C6070BD61686960A8
:1005200021680844286070BD7CB51D4616460C0045
:10053000009001D02044401E074B7B442A46694668
:100540000190304600F0BDFD05461CB10020694613
:1005500000F0CAFD28467CBDB50B00000FB404496D
:1005600010B503AA029800F0CDFD10BC5DF814FB95
:10057000D80300102DE9F05F894604464FF0000AC9
:10058000DFF874B1FB44C0F820A02046E16888473A
:10059000002874D0252806D0D4E901219047206A8C
:1005A000401C2062F1E700265F462046E16888474C
:1005B0002028054607DB312D05D2781910F8200CCC
:1005C00008B10643F1E7B00701D526F00406C4F8E8
:1005D0001CA00027C4F818A02A2D09D0284602F034
:1005E000BFFA38B304EB8708303DC8F8185019E05B
:1005F00059F8041B204604EB87029161E1688847A3
:10060000012F054618D1E069002820DA26F02006DF
:100610001DE0D8F8180000EB800005EB40003038F2
:10062000C8F818002046E1688847054602F098FAA5
:100630000028EED1012F0AD02E2D08D12046E168E6
:1006400088477F1C0546022F46F02006C4DBA069C0
:10065000002803DA404246F00106A061F00701D00D
:1006600026F010066C2D0BD0682D09D04C2D39D0FA
:100670006A2D35D0742D35D07A2D33D016E038E080
:10068000E1682F4620468847B842054609D16C2FBD
:1006900026D04FF48060E16806432046884705462F
:1006A00004E06C2F1AD04FF4807006430DB3A5F10F
:1006B0004100192802D8203546F400664A462946EA
:1006C000204626604E46FFF755FE80B101280BD02C
:1006D000F61D26F0070000F1080956E74020E4E780
:1006E0008020D8E70020D6E706F104094DE7284628
:1006F00052E7206ABDE8F09F084C000070B5044640
:10070000C068810713D0800601D5A56A04E0A169FD
:10071000606808442169451A204600F0FBFE00226B
:1007200006462946204600F021FE304670BD0020D6
:1007300070BD70B510B1BDE87040DFE70025074C13
:100740006E1E07E02046FFF7D9FF00B13546206D49
:1007500020F00104002CF5D1284670BD8403001060
:100760002DE9F0410C4607461646104600F0B2FF50
:100770002078611C61280AD0722802D077283CD1E9
:1007800002E00125002405E00225042402E00824FB
:1007900048F2020511F8010B2B2806D0622809D077
:1007A00011F8010C74280AD00BE045F0030544F061
:1007B0000204EFE745F0040544F00104EAE744F0E1
:1007C00010043846214602F055FA411C15D000218C
:1007D000316171604FF40071F560F1617061200763
:1007E00004D530460222002100F0C0FD306D40F0FB
:1007F000010030653046BDE8F0810020FBE72DE9BF
:10080000F0410D460646104C206DC10704D041084A
:1008100004D020F00104F7E722460EE05420FFF751
:100820002DFE07000ED0206D47F001010843542132
:100830002065384600F0A6F83A4629463046BDE81D
:10084000F0418DE70020D6E78403001010B5431C6B
:1008500002E010F8011B71B18107FAD14FF00132AB
:1008600002C88C1A8C4314EAC211F9D0C01A0A06C5
:1008700003D0C01E10BDC01A10BD0A0401D0801ED6
:1008800010BD0902FCD0401E10BD40EA010370B546
:100890009B072ED14FF00136042A2AD308C810C96D
:1008A0009D1B9D43121F15EAC61517D0D8B2E1B2A1
:1008B000401A50EA056110D198B2A1B2401A50EA2C
:1008C00005410AD123F07F4024F07F41401A50EACD
:1008D000052102D1180EA0EB146070BDA342DBD03D
:1008E00018BA21BA884201D9012070BD4FF0FF30FB
:1008F00070BD0AB9002070BD10F8013B11F8014B22
:1009000063B1A3420AD1521E08D010F8013B11F87E
:10091000014B1BB1A34201D1521EEDD1181B70BD7A
:1009200010B5203AC0F00B80B1E81850203AA0E88A
:100930001850B1E81850A0E81850BFF4F5AF5FEABE
:10094000027C24BFB1E81850A0E8185044BF18C971
:1009500018C0BDE810405FEA827C24BF51F8043B18
:1009600040F8043B08BF7047D20728BF31F8023B6C
:1009700048BF11F8012B28BF20F8023B48BF00F800
:10098000012B70474FF0000200B51346944696467F
:10099000203922BFA0E80C50A0E80C50B1F1200192
:1009A000BFF4F7AF090728BFA0E80C5048BF0CC040
:1009B0005DF804EB890028BF40F8042B08BF70479E
:1009C00048BF20F8022B11F0804F18BF00F8012B10
:1009D000704700004FF0013C50F8042B51F8043BE5
:1009E0009A4221D1A2EB0C03934313EACC1317D103
:1009F00050F8042B51F8043B9A4215D1A2EB0C039A
:100A0000934313EACC130BD150F8042B51F8043B59
:100A10009A4209D1A2EB0C03934313EACC13DBD027
:100A20004FF00000704700BFD01A01BAB1FA81F14F
:100A300001F0180122FA01F0CB40C1F12001DBB234
:100A4000C0B2C01A2CFA01F3D11A914311EAC311B2
:100A5000E6D1704770B5064C7C44064D7D4403E0FA
:100A6000206820448047241DAC42F9D170BD0000AD
:100A7000EC4C0000EC4C0000004870478004001073
:100A8000704770477047704738B504460A460020E3
:100A9000694601F0B8F9002808BF38BD0246009940
:100AA000204600F041FE012038BD012001F098B938
:100AB000F8B501F09DF9054600200C46102000BF56
:100AC0000646A819A0420DD932466946002001F019
:100AD0009AF9070008BF01F083F90098A04218BFF7
:100AE0000546C419FFF7C8FF05600746F01D20F052
:100AF00007004619284600F00AF8B44208BFF8BDBE
:100B0000A21B31463868BDE8F84000F00DBE002158
:100B10000160C0E9011070471020704710B5FFF761
:100B2000A9FC006810BD10B50446FFF7A3FC0460E3
:100B300010BD70B5044685690068C10601D5302630
:100B400000E02026C00707D070BDD4E9012130465F
:100B50009047206A401C20626D1EF6D570BD70B5AE
:100B6000044685690078C00707D170BDD4E901212A
:100B700020209047206A401C20626D1EF6D570BD73
:100B800009684A0501D540B27047C905FCD500B2D5
:100B9000704709684A0501D5C0B27047C905FCD540
:100BA00080B2704770B50C460546012A05D02878FA
:100BB000800600D5EA69002302E0012305E05B1C02
:100BC000934202D2E05C0028F9D1A869E618C01A65
:100BD000A861286A184428622846FFF7AAFF04E0A3
:100BE000D5E9012114F8010B9047B442F8D3284607
:100BF000FFF7B5FF70BD00002DE9F0410646002467
:100C000010687529314616A510D0FFF7B9FF0028E6
:100C100002DA404213A507E031688A0701D512A520
:100C200002E0490704D511A5012401E0FFF7B1FF57
:100C300000210A2206F1240709E0B0FBF2FCB0FB18
:100C4000F2F302FB1C00303078541846491C00288F
:100C5000F3D123462A463046BDE8F04100F0C3BD3B
:100C6000000000002D0000002B000000200000000C
:100C700011680268006A530501D508700AE0D305BF
:100C800001D5088006E0130603D5C217C1E90002AA
:100C900000E008600120704770472DE9FF4F0C46C7
:100CA0001E464FF0FF378BB0D2E90001DDF86080BF
:100CB0000A908A46C1F30A5505B93D460021084607
:100CC0004FF00000BAF1000F00F4400005DA00EB2D
:100CD00080004FF4400101EA50004FEA9059B9F109
:100CE000010F00DDB9460A9850EA4A000ED044F6DA
:100CF0001050A5F2FF3545432F14B8F1000F1ED058
:100D00007542291E1EDDC9F100021CE0B8F1010F79
:100D10004FF0000001D0302103E0F24305E0215400
:100D2000401CB042FBDB30460022002121540B99CD
:100D3000C1F80880C1E900200FB0BDE8F08FBD1BED
:100D40006D1CDEE74A4600DA694206A800F08EFF15
:100D500006AB93E8070003AB83E8070050460A9907
:100D600001F0CFF98DE80700A0F500501F38009082
:100D70000398002D0ADD42F21F014A460844002371
:100D800003A90390684601F038FC09E0A0F5005083
:100D90004A461F38002303A90390684601F042FC2D
:100DA0008DE807000004000C03D04FF0FF3041082D
:100DB00000E01046B8F1000F03D000220092154663
:100DC0001EE0751E05D400F0C9FC303262556D1E60
:100DD000F9D5B3460122084302D000227F1C04E06B
:100DE0002078302801D100227F1E002A099784D064
:100DF0001DE0112D07DA00F0B1FC303262556D1C98
:100E000050EA0102F5D1084302D00098C8B10EE0C3
:100E10000021681E05E0235C625C63542254401E7E
:100E2000491C8142F7DBAB46A81B401E09900020FD
:100E300004F80B000B98099AC0F80880C0E9002B51
:100E40007AE711264FF0000857E72DE9F04F884662
:100E50000446D21D22F0070191B0D1E90001CDE98D
:100E60000A0101F00BFE02460B98C00F01D02D20A5
:100E700007E02068810701D52B2002E0202101EA4C
:100E8000C000032A099001D0072A05DB034641462A
:100E9000204600F07FFE0BE12078800601D5E06956
:100EA00000E00620B8F1650F814606D0B8F1660F64
:100EB00018D0B8F1670F70D131E00020B9F1110FEF
:100EC000009001DB112301E009F101030AAA01A945
:100ED0000CA8FFF7E2FEDDE90C70002609F1010520
:100EE000834647E001204B4600904FF000470AAA96
:100EF00001A90CA8FFF7D1FEDDE90DB00C995D4604
:100F0000002610B909F101000D18B9EB050003D452
:100F1000C0F1FF3609F10105A5EB09002BE0B9F19D
:100F2000010F01DA4FF001090020B9F1110F009013
:100F3000484601DD112300E003460AAA01A90CA8D6
:100F4000FFF7ABFEDDE90C704D46002683462078A6
:100F500000070AD4AB4500DA5D4601A8012D04DD87
:100F6000411911F8011C302907D04F4502DA17F159
:100F7000040F04DA012082460FE06D1EEEE7002F19
:100F800002DCED1B3E4403E0781CA84200DD7D1C22
:100F9000B81B00F1010A4FF000472078000703D486
:100FA000AA4501DB4FF0FF3A0021B7F1004F0DF1E8
:100FB00043088DF8431024D002202B23002F01DAA0
:100FC0007F422D230A21021EA0F1010000DC5FB147
:100FD00097FBF1FC97FBF1F201FB1C7C17460CF12F
:100FE000300C08F801CDEEE7A8F10100037021886C
:100FF000090501D5452100E06521A0F1010800F8AF
:10100000011C09980FA9A1EB0807FF1D00B10120E1
:10101000411901EBEA70A1693844081A401EA06129
:101020002078C00602D42046FFF783FD099828B136
:10103000D4E901219047206A401C20622078C00634
:1010400022D52046FFF775FD1EE0002E04DBB345D8
:1010500002DD01A8805D00E03020D4E90121904745
:10106000206A401C2062761CAAF101005FEA000A97
:101070000AD100F055FBC0680168405CD4E9012149
:101080009047206A401C2062281EA5F10105DCDC87
:1010900007E0D4E9012118F8010B9047206A401CB1
:1010A0002062381EA7F10107F3DC2046FFF757FD49
:1010B000032011B041E6000001694A1C0261087872
:1010C000704700B58FB0CDE9013100210591054988
:1010D0007944CDE9031011466846FFF74BFA0FB08B
:1010E00000BD0000E5FFFFFF0A6802F8010B0A607F
:1010F0007047D1E900239A4202D2531C0B60107052
:1011000070470000074B70B50D467B44FFF7D9FFD1
:101110000446284600F026F910B14FF0FF3070BDAC
:10112000204670BD4B2100002DE9FF5F15468A4621
:101130000446DFF8AC80F8440027D8E900103E46AA
:10114000CDE9001010E03AF816106A4602A800F047
:1011500020FE411C07D02178890603D5E2693918A1
:1011600091420DD80744761C2078800602D5E069AC
:10117000B84205DDAE42E6DB3AF816000028E2D1BF
:10118000A069C01BA0612046FFF7D3FCD8E900107E
:10119000CDE90010002017E03AF818106A4602A8BE
:1011A00000F0F7FDB0F1FF3F81460BD000250DF1B7
:1011B000080B05E0D4E901211BF8050090476D1CE0
:1011C0004D45F7D308F10100B0428046E4DB206AC8
:1011D000384420622046FFF7C2FCBDE8FF9F0000B4
:1011E000AA4100002DE9F0418046D21D22F00702FD
:1011F0000025D2E90002F52915A614D0011E72F1CE
:10120000000106DA0023D0EB030063EB020211A613
:1012100008E0D8F800108B0701D50FA602E04907B7
:1012200001D50EA601251146002408F1240704E08B
:1012300000F094FA30323A55641C50EA0102F7D1BA
:101240002B46324621464046BDE8F04100F0CBBA7D
:10125000000000002D0000002B0000002000000016
:1012600030B4002100F1240408E002F00705D208A0
:10127000303542EA4372DB086554491C52EA0305E3
:10128000F3D10468002310A2250707D5A40600D4D3
:1012900021B1C46901230DA2641EC46130BC00F0F9
:1012A000A2BA10B5044621461068FFF772FC024648
:1012B0002046BDE810400023D2E7D21D22F00701EE
:1012C000D1E90023CCE7000000000000300000005E
:1012D000F0B40D460188090502D5214C7C4402E09A
:1012E0001F4C7C440E34002100F1240608E002F07B
:1012F0000F071209E75D42EA03721B097754491C84
:1013000052EA0307F3D102780023120704D5702DA7
:1013100006D009B1022311342246F0BC00F063BAB2
:1013200001231034F8E770B504460D4621461068D5
:10133000FFF72FFC024629462046BDE870400023F7
:10134000C6E7D21D22F00703D3E90023C0E70368F4
:10135000126843F0200303600823C3610023B7E74A
:101360000C400000007B00F0800070472DE9F04148
:10137000044616460D464769007B80072ED0384646
:1013800001F058FC50BB3EB3012E02D0022E25D1F5
:1013900004E0204600F0DCFC05441DE0384601F086
:1013A00023FCE168002841F01001E16005DA2046E5
:1013B00000F07CF80120BDE8F081C9030BD562681C
:1013C000E16A914200D81146A26911442269891A42
:1013D000814200DD08460544002D01DA0220EAE7DB
:1013E000E16A6068E268814206D29103E06203D557
:1013F00022F4003141F01002A6690027AE4213DC4E
:10140000E16A814201D90B4600E0034603EB060C7A
:101410002369ACEB030CAC4506DD814201D98C4657
:1014200000E084469C4505D1A760276042F020007B
:10143000A5620DE0AD1BE669AE1B8142A66000D936
:101440000846C01A281A20605819606022F020004F
:1014500003490840E060002084F84870ABE70000D2
:10146000BFCFD7FF70B5C468A50713D0650211D4EC
:10147000B2F5807F09D0B2F5007F06D0B2F5806F5B
:1014800008D1012300F1240106E05D1E6FF07F46C4
:10149000B54201D3012070BD0161C361416024F4F4
:1014A00070611143C160002070BD0000C16821F46B
:1014B000001141F08001C16000218160016070472E
:1014C0002DE9F047814614460E464FF0FF3832486A
:1014D000D5685769054209D03846A16901F0CEFCAC
:1014E000002811DB2C48C0430540E5602B463246FE
:1014F0004946384601F0EAFCA16920F00042B21AE0
:1015000011440028A16103D02046FFF7CFFF4046D9
:10151000BDE8F08770B504460569C06A6168884215
:1015200000D80846E16821F42011E160C90312D512
:10153000A84208D02246411B2846FFF7C1FF10B140
:101540004FF0FF3070BD0020E562C4E90150E06853
:1015500020F48030E060002070BD10B50446C06803
:1015600020F02000E060A16AA06988420DD02046EA
:10157000FFF7D0FFE06820F4405040F01000E0603A
:10158000A06AA0612069E062606044F24001E06806
:101590008843E06010BD00001000020010B5424812
:1015A0005421FFF7EFF941485421FFF7EBF9404888
:1015B0005421FFF7E7F93F493B483C4A3F4B08605D
:1015C0003D490A603A491960531C0365481C10657F
:1015D000012008653B48344A39A17844FFF7C0F838
:1015E00020B9384878440A3800F0F3FB37482F4ACE
:1015F00035A17844FFF7B4F820B9344878440A3864
:1016000000F0E7FB32482A4A2FA17844FFF7A8F8F8
:1016100020B92F4878440A3800F0DBFB40232248E9
:10162000DC0000212246FFF71DFF20B12548784449
:10163000543800F0CEFB1D48224640230021FFF71E
:1016400011FF20B121487844543800F0C2FB1848FB
:10165000224610230021FFF705FF002806D01C4872
:101660007844BDE81040563800F0B3BB10BD1048B8
:1016700070B5006D20F001040B4800F02BF80B480A
:1016800000F028F80A4800F025F809E0206D20F065
:101690000105204600F01EF82046FEF71EFF2C46EE
:1016A000002CF3D170BD000084030010D80300109B
:1016B0002C040010180100101C0100102001001063
:1016C00072000000423A000077000000313A00004A
:1016D000213A00002DE9F04704464FF000094FF091
:1016E000FF37C568D4E90486A80707D02046FFF76E
:1016F00011FF304601F052FA002802DA3846BDE800
:10170000F087280502D54046FEF7E7FE4C2120462B
:10171000FFF738F9206D20F0010020654846EEE71C
:101720000048704784040010034640688C46002837
:1017300018BF88423CBF03464068F8D31868184475
:10174000884207D00CF1030020F00700001D411A69
:10175000521A0146081D0A60FEF7BFBE30B5B0F14F
:101760000A024FEA900E71F100034EEA817EB0EB5F
:101770000E0061EB91014FEA101E4EEA017E10EB64
:101780000E0041EB11114FEA102E4EEA016E10EBE4
:101790000E0041EB11214FEA104E4EEA014E10EBC4
:1017A0000E0041EB1141401841F100014FEAD00019
:1017B00040EA41704FEAD10110EB80054FEA810405
:1017C00044EA907444EB01046D1944EB0404521B89
:1017D000A3414FF0000348BF0A3200D530BD401C82
:1017E00041F1000130BD2DE9F0470D469946924682
:1017F000044600F124080168880604D5E06921F058
:101800001001216000E00120A84201DD471B00E03B
:101810000027A1697A1902EB0900081AA061207853
:10182000C00602D42046FFF784F9002608E0D4E978
:1018300001211AF806009047206A401C761C20629D
:101840004E45F4DB2078C0060AD52046FFF771F933
:1018500006E0D4E9012130209047206A401C206234
:10186000381EA7F10107F4DC07E0D4E9012118F8DC
:1018700005009047206A401C2062281EA5F1010542
:10188000F3DC2046FFF76BF92078000602D5022032
:10189000BDE8F0870120FBE72DE9F04F04460D4637
:1018A000D21D22F0070089B0D0E90097484639469A
:1018B00001F0E4F80246F80F01D02D2307E020687C
:1018C000810701D52B2302E0202101EAC0038DF816
:1018D00020300BB1012000E00020032A824601D015
:1018E000072A04DB2946204600F054F93FE120781E
:1018F000800601D40D2500E0E569C7F30A560D2DD9
:1019000049DA00214FEA175B08464FF00000002F2C
:1019100000F4400007DA00EB80004FF4400100EBD8
:10192000D07001EA60008115012901DD4FF0FF311F
:1019300000224FEA850CBCF1180F06D31346ACF118
:1019400018004FF08052C24003E04FF4801323FA96
:101950000CF30CF10C0CBCF1200F04D3ACF1200CF7
:1019600009FA0CF001E007FA0CF000294FF00048EA
:1019700001DD18B90FE00ED140450CD319EB020977
:101980005F4121B9404502D19F4329EA0209BBEBDF
:10199000175F00D0761C2088000502D57B4878446C
:1019A00002E07A487844193808AA302302F80A304D
:1019B000037C0AF10101002E0AF1020A53546A461F
:1019C00002DC4FF0300101E04FF031014FF001082F
:1019D0008DF8001002D0A6F2FF3603E059EA470165
:1019E00000D06B4E002D02DC2178090704D54FF0A2
:1019F00002082E218DF80110C44600210BE0C7F328
:101A000003433F01C35C491C6D1E02F808300529E1
:101A100008F1010801DA002DF1DC00210CE000EBF7
:101A20001973491C1B786D1E082902F808304FEA0B
:101A3000091908F1010801DA002DF0DC21688B0694
:101A400002D516E0A8F10108E04505DD02EB080328
:101A500013F8013C302BF5D0B8F1000F09DD02EB93
:101A6000080313F8013C2E2B03D1090701D4A8F178
:101A70000108002D05DD3E2102F808106D1E08F159
:101A80000108407C002E02F8080008F1010804DA81
:101A90002D20764202F8080002E02B2002F8080010
:101AA0000A214FF47A70864208F101080BDB96FB9D
:101AB000F0F3303302F8083096FBF0F308F1010838
:101AC00000FB136601E0642E0CDB642096FBF0F350
:101AD000303302F8083096FBF0F308F1010800FB00
:101AE000136601E00A2E06DB96FBF1F0303002F8B7
:101AF000080008F1010896FBF1F001FB106030309E
:101B000002F80800A16908F1010808EB050202EBE0
:101B10000A00081AA0612078C00602D42046FFF708
:101B200008F8216A08AE01EB0A00206204E0D4E95B
:101B3000012116F8010B9047BAF1010AF7D220787B
:101B4000C00602D52046FEF7F4FF6E4609E016F8FF
:101B5000010B3E280FD0D4E901219047206A401C98
:101B60002062B8F10108F2D22046FEF7F8FF09B072
:101B70000320BDE8F08F206A2844206203E0D4E906
:101B80000121302090476D1EEBD3F8E78539000026
:101B900002FCFFFF2DE9F0411F46044603260168C1
:101BA000072A01F4006004DB08B116A505E016A5BC
:101BB00003E008B115A500E015A521F01000206094
:101BC000A069C01EA0610FB1401EA0612046FEF7B3
:101BD000B0FF4FB1D4E9012138469047206A401C3C
:101BE0002062C01C206206E0206AFAE7D4E90121E5
:101BF00015F8010B9047761EF8D22046FEF7AFFF8E
:101C0000BDE8F0814E414E006E616E00494E4600C7
:101C1000696E660010B5436913B1AFF3008001E04F
:101C2000FEF7C0FF012010BD127800F124010A70F8
:101C300000224A700122EDE711684FF0FF32E9E718
:101C400010B5436913B1AFF3008001E0FFF76CFA00
:101C5000012010BD128800F1240182840022C28478
:101C60000122EDE711684FF0FF32E9E72DE9F04777
:101C7000814616468AB0354878440DC88DE80D0077
:101C800032487844801C03AC0DC884E80D0041F64E
:101C90009B300844372190FBF1F290FBF1F5A5F160
:101CA000800501FB12041B3C02D56442012000E0C8
:101CB0000020DFF898A080460027FA44AAF1BE0A67
:101CC0000EE0E0070AD03246684607EB47010123E1
:101CD0000AEB810100F0A6FC8DE8070064107F1C70
:101CE000002CEED1194F7F44AE3F19E0E80715D024
:101CF00007EB04100DF1180A90E80E008AE80E00B8
:101D0000C068F04201D1981908903246012306A913
:101D100003A800F087FC03AB83E807006D10641C88
:101D2000002DE3D14FF0010332466946B8F1000FB0
:101D300003A802D000F061FC01E000F073FCC9E9E7
:101D40000001C9F808200AB0BDE8F0873C37000060
:101D500010B50146C268900703D0900607D5886A7F
:101D60000AE0FEF787FB01210160881E10BD8B6928
:101D7000486818440B69C01A91F848301BB191F8B3
:101D80004910401A10BD1103FCD50028FADD401E91
:101D900010BD70B516460C46054600F051F80368B4
:101DA00093F80101012806D0FF2C0FD8185D68B107
:101DB00001202C7070BDD3F807013246214603F292
:101DC000071303442846BDE8704018474FF0FF3022
:101DD00070BD10B500F02CF9BDE8104000F023B93B
:101DE00010B500F03FF9BDE8104000F01CB900004C
:101DF000124B694600F580528A421A6001D811469A
:101E000070471960704730B50C4D6B46A3F5805391
:101E10002C6822449A420FD89B1A02F5805003EB9B
:101E2000D37302EB6303984200D91846C01D20F01B
:101E300007020C60101B2A6030BD00002401001056
:101E400010B5FFF76DFC001D10BD00BFF5290000A7
:101E50002DE9F04705460C46C86820F4201040F4F0
:101E60008000C860800602D50846FFF776FBE06870
:101E700041F282014FF0FF390140022903D0204690
:101E8000FFF714FBB5E000F42041B1F5004F0FD18E
:101E9000C00306D56168E06A884200D808466060E1
:101EA00006E02069E0626060606900F09DFEA0616C
:101EB000A0680022EEB200280DDAE1688B050AD492
:101EC000C043A06041F490302260E0606068411C33
:101ED00061600670A5E0E0689046226040F4005022
:101EE000E060206968BB606900F0A4FE012704F18E
:101EF0002405A0B1A08910F4407F08D0E069FEF766
:101F0000BDFA206118B1E06840F4006016E0E761B6
:101F10002561E06820F4407040F480600EE0E069E4
:101F2000FEF7ACFA00282061F1D0E06840F40060D0
:101F300010F4407FE06002D140F48070E0602069DE
:101F40006060E06825696FF0010AC1051FD561680E
:101F5000E06A884200D80846411B04D02246284641
:101F6000FFF7AEFAF0BBE068010203D5E562C4E911
:101F7000015854E0691CE1626160E16940F480301D
:101F8000491EC4E9021030462E70BDE8F0870102F8
:101F900002D500F480320AE06068411C616006707E
:101FA000E0680A2E40F48030E06006D00022E16A4A
:101FB0006068814203D90B4602E00122F7E703463D
:101FC000A7895B1B7F0503D4E7699F4200DDE2B16F
:101FD000814200D80146E5620F1AC4E90158002B7E
:101FE00009DD00E005E0224619462846FFF768FAB9
:101FF00008B14846C9E747B1A069E5626560C01B02
:10200000A061E06840F01000E060E068000208D5E0
:102010006168A069E562491B08446560A06150469B
:10202000B3E73046B1E7002801D000F043B870476D
:1020300010B5014602A000F043F8012010BD0000D9
:1020400053494752545245443A2052656469726577
:1020500063743A2063616E2774206F70656E3A2056
:102060000000000010B5012805D0002103A000F0F9
:1020700027F8012010BD09A1F8E700005349475295
:10208000544D454D3A204F7574206F662068656148
:1020900070206D656D6F7279000000003A20486510
:1020A0006170206D656D6F727920636F72727570EB
:1020B0007465640001491820ABBEFEE726000200EB
:1020C00070B505460C460A2000E06D1C00F011F8C2
:1020D00035B128780028F8D102E0641C00F009F836
:1020E00014B120780028F8D1BDE870400A20AFF381
:1020F000008008B569468DF800000320ABBE08BD1E
:1021000070475FEA400C08BF91F0000F4FEA8C2344
:102110004FEAC12243EA51514FEA1C5018BF00F563
:10212000F0404FEA300018BF41F000415FEA6C5CBC
:1021300000F02980BCF1FF3F08BF40F080407047AD
:10214000130C06BF12044FF0100C4FF0000C130ECE
:1021500004BF12020CF1080C130F04BF12010CF1A2
:10216000040C930F04BF92000CF1020CD30F04BFB8
:1021700052000CF1010C11464FF00002A0F11F00BB
:10218000A0EB0C00704711F0004F08BF704731F012
:1021900000413FF4D5AF0B0C06BF09044FF0100C03
:1021A0004FF0000C0B0E04BF09020CF1080C0B0FD2
:1021B00004BF09010CF1040C8B0F04BF89000CF162
:1021C000020CCB0F04BF49000CF1010CCCF1200331
:1021D000A0EB0C0022FA03F302FA0CF241EA03012D
:1021E00000F10100704720F07F4C80EA030023F0EB
:1021F0007F47ACEB070303F57C5300F0004003F18D
:10220000FF032DE980494FEA154B09B44FEA144307
:1022100025EA0B4E24EA03480FF2042606EB1327A7
:1022200049083E785FEA320203FB0667C7F50007FC
:1022300007FB06F64FEA54374FEAD64606F1020688
:1022400007FB066CCCF1005C4FEA1C472CEA074CFC
:1022500007FB06F40CFB06F504EB15464FEA961651
:1022600034BF00204FF000404FEAD13706FB07FC97
:102270004FEA1C4C0CFB0BF7D21B03FB0CF761EB7A
:1022800007010CFB0EF7B0EB074072EB17420CFB9B
:1022900008F734BFA2EB0742B2EB074261EB1741EC
:1022A0004FEA0C444FEA910706FB07FC4FEA1C4C2F
:1022B0000CFB0BF7B0EBC74072EB573203FB0CF78C
:1022C00034BFA2EBC742B2EBC74261EB57310CFB04
:1022D0000EF7B0EBC70072EB57720CFB08F734BF78
:1022E000A2EBC702B2EBC70261EB5771039F4FEA43
:1022F000816141EA921104EBCC044FEAD1374FEAF5
:10230000826206FB07FC42EA90124FEA80604FEAC5
:102310001C4C0CFB0BF7D21B03FB0CF761EB07010A
:102320000CFB0EF7B0EB074072EB17420CFB08F703
:1023300034BFA2EB0742B2EB074261EB17414FEA11
:102340008C554FEA910704EB9C2406FB07FC4FEAEF
:102350001C4C0CFB0BF7B0EBC74072EB573203FB86
:102360000CF734BFA2EBC742B2EBC74261EB573167
:102370000CFB0EF7B0EBC70072EB57720CFB08F7C3
:1023800034BFA2EBC702B2EBC70261EB577115EB8A
:102390004C254FEA816141EA92114FEA82624FEA8D
:1023A000D13742EA901206FB07FC44F100044FEAE1
:1023B00080604FEA1C4C0CFB0BF7D21B03FB0CF7A5
:1023C00061EB07010CFB0EF7B0EB074072EB174215
:1023D0000CFB08F734BFA2EB0742B2EB074261EBFC
:1023E000174115EB1C154FEA813141EA92414FEA42
:1023F000823242EA90424FEA80304FEA0C7644F152
:10240000000448EA03434EEA0B484FF0000EB2EBDB
:10241000080C71EB030724BF624639464EEB0E0EE3
:102420004FF0000B0018524149414BEB0B0BB2EB44
:10243000080C71EB03077BF1000B24BF62463946A1
:102440004EEB0E0E4FF0000B0018524149414BEB82
:102450000B0BB2EB080C71EB03077BF1000B24BFF5
:10246000624639464EEB0E0E51EA020718BF46F09F
:10247000010616EB0E7655F1000254F1000103D56A
:10248000BDE88901BDE80088BDE88901BDE80048D4
:10249000B619524141EB0101A3F10103704780805D
:1024A0007F7E7D7C7B7A79787776767574737271AE
:1024B00071706F6E6E6D6C6C6B6A6A696868676666
:1024C00066656464636362616160605F5F5E5E5DF8
:1024D0005D5C5C5B5B5A5A5959585857575656556C
:1024E00055555454535352525251515050504F4FCE
:1024F0004F4E4E4D4D4D4C4C4C4B4B4B4A4A4A491E
:102500004949484848474747474646464545454460
:102510004444444343434342424242414141002BED
:102520009C4630D477002BD01CB54FEA370703B454
:102530004FF010004FF01001BAF1000F06D0BCF1BF
:10254000000FDCBF40F0080040F008014FF0000031
:102550000FBCBDE810400BF1010BBBF1010F08BF30
:102560005FEA170722BF12F1010211F101014FF0DA
:10257000004143F1000300F0004043EA00007047CF
:10258000F9D35708D0E746EA064613F1400F4FEA61
:1025900016461FDD13F1200FDFBF16430A46002148
:1025A00020335B42BED0C3F1200746EA064602FA5A
:1025B00007F74FEA164646EA0706C3F1200722FA54
:1025C00003F201FA07F721FA03F14FF0000342EAA0
:1025D0000702A7E746EA020646EA06464FEA16461B
:1025E00046EA0106BCBF46EA0646360C4FF0000339
:1025F0004FF000024FF0000194E72DE9804C9A461D
:10260000934670B491E8380007C831EA400C48BFDF
:1026100034EA430C03D5FFF7E6FDFFF780FFF0BC7B
:10262000BDE8008C2DE9804C9A46934670B491E841
:10263000380007C810F0804F08BF13F0804F03D157
:1026400000F005F8FFF76BFFF0BCBDE8008C20F050
:102650007F4780EA030023F07F4C07EB0C03A3F5D0
:102660007C5300F00040A3F1FE0392F0000F00F055
:10267000B38095F0000F00F077802DE901494FEA13
:1026800011404FEA144621EA004800FB06FC24EA08
:10269000064708FB06F607FB08F800FB07F718EBF0
:1026A00006484CEB164C4FEA124B18EB07484FEA22
:1026B00015464CEB174022EA0B4E0BFB06FC25EAB5
:1026C00006470EFB06F607FB0EFE0BFB07F71EEB9D
:1026D000064E4CEB164C4FF000061EEB074E4CEB33
:1026E000174B18EB0B0840F1000018EB0E0B58EBE2
:1026F000000840F100008F1A4FF000013CBFC943B1
:10270000661B14BFB5EB040C00213CBFC943F61B8C
:102710004FEA17444EEA8E0E27EA04454FEA1C475B
:1027200004FB07622CEA074C05FB07F70CFB05F6D8
:1027300004FB0CFC16EB074642EB174216EB0C466B
:1027400042EB1C421BEB060658EB0202414146EAF3
:102750009E0601D5BDE80189B619524141EB010140
:10276000A3F10103BDE801894FEA14454FEA11477F
:1027700024EA054621EA074C05FB07F406FB07F7A8
:102780000CFB06F105FB0CFC11EB074144EB174475
:102790004FEA124711EB0C4144EB1C4422EA074C70
:1027A00005FB07F206FB07F70CFB06F605FB0CFC26
:1027B00016EB074642EB174216EB0C4642EB1C4564
:1027C0006A1854F1000148BF7047B619524141EBF5
:1027D0000101A3F10103704795F0000F37D04FEAD4
:1027E00011424FEA144721EA024624EA074C02FB51
:1027F00007F106FB07F70CFB06F402FB0CFC14EBDD
:10280000074441EB17414FEA154714EB0C4441EBE9
:102810001C4125EA074C02FB07F506FB07F70CFBFA
:1028200006F602FB0CFC16EB074645EB174516EBCC
:102830000C4645EB1C42121951F1000148BF70478C
:10284000B619524141EB0101A3F1010370474FEA70
:1028500014454FEA114724EA054621EA074C05FBD7
:1028600007F106FB07F70CFB06F24FF0000605FB2D
:102870000CFC12EB074241EB174112EB0C4251EBFF
:102880001C4148BF7047921841EB0101A3F10103BD
:10289000704710B500F038FFBDE8104000F0A6BD4D
:1028A00025482021C0F8A011D0F8A01111F0200F68
:1028B00005D000BFD0F8A01111F0400FFAD00221CE
:1028C000C0F804110022C0F8A821C0F8AC210121F1
:1028D000C0F80C110B23C0F88430AA23C0F88C3048
:1028E0004FF0550CC0F88CC0C0F88010C0F88C3088
:1028F000C0F88CC0D0F8881011F0806FFAD0032196
:10290000C0F88010C0F88C30C0F88CC0D0F88810A7
:1029100011F0407FFAD00521C0F808110749C0F82E
:10292000C410C0F8C821016843F23A0221F4704192
:10293000114301607047000000C00F40DE8728048B
:1029400070B50546024801F091FF044600BF70BD16
:10295000F800001070B50546024801F087FF0446F4
:1029600000BF70BDF80000107047007B704700008A
:1029700070B506460D46154801F078FF1448046806
:10298000F4B1A068C8B12A463146FDF77EFFA0B970
:10299000A068FDF75BFFA8420FD10C480168002931
:1029A00004BF011D0160001D814204D05D22094960
:1029B000094800F0C9FD204670BD6468002CE0D1D4
:1029C000024801F053FF002070BD0000100100100C
:1029D0000C010010FC530000E853000010B5044641
:1029E000406818B1FFF7C1FF012801D0002010BDD9
:1029F0006068002818BF001F10BD10B5044640686D
:102A000010B1FFF7B2FF08B1002010BD60680028C8
:102A100018BF001F10BD4068002818BF0120704774
:102A200010B54068002808BF10BDFFF79EFF0028C2
:102A30000CBF0120002010BD0068704710B504468F
:102A400000202060606008782F280DD1487858B1A8
:102A50004B1C00212360226810782F2806D038B143
:102A6000501C491C2060F6E7204610BD501C206019
:102A70001846FFF77DFF6060204610BD490050EA10
:102A8000C12018BF04204A0D18BF40F0010040F2D9
:102A9000FF72B2EB515F08BF40F00200012808BF8F
:102AA000052070474100080218BF04200A0E18BF15
:102AB00040F001004FF07F4232EA010108BF40F0D0
:102AC0000200012808BF052070470120704700213F
:102AD0004FF07E5001F07ABF01F010BF0021084690
:102AE00001F074BF61214FF0E04002F024BA6FF0B2
:102AF0005E01080702F01FBA70B5114C114D182184
:102B00002046FDF73FFF2946204600F013FC00BF9A
:102B10000D4C0C4D1A3D0D4820602046FFF710FF6C
:102B20002946201D00F012FA2046FFF713FF00BFD0
:102B30002646074A07493046FFF7C7FF70BD000029
:102B40004C03001032C00920F0000010D8530000E0
:102B5000000000006929000010B500F009F810BD60
:102B600030380A2801D20120704700207047000049
:102B700002486A4620F00700704700009F040010DA
:102B800010B5054C21686006C422FDF7C9FE600639
:102B9000206000F0BAFD10BD08ED00E00328BCBFC6
:102BA0000020704710B500220E4901EB800151F85A
:102BB0000C0C41F80C2C68B1016849698847040085
:102BC0005CBF002010BDFDF755FC614201604FF075
:102BD000FF3010BDFDF74EFC092101604FF0FF30C2
:102BE00010BD00002C02001010B5032805DAFDF717
:102BF00041FC05210160881F10BD0D4901EB8000DB
:102C000050F80C0C60B10168896A8847040058BF0D
:102C100010BDFDF72FFC614201604FF0FF3010BD89
:102C2000FDF728FC092101604FF0FF3010BD0000C6
:102C30002C0200100328BCBF0120704710B50C49BE
:102C400001EB800050F80C0C58B10168C969884745
:102C5000040058BF10BDFDF70DFC6142016000206B
:102C600010BDFDF707FC09210160002010BD000028
:102C70002C0200102DE9F0470E4684B081467549BC
:102C8000FDF7A8FE754D744C6F1E20B3744948467D
:102C9000FDF7A0FE00282ED072494846FDF79AFEA7
:102CA000002838D0704C2068002804BF201D206008
:102CB000251DA84204D05D226C496D4800F044FCFB
:102CC00021686C4F002400BF57F8240098B3641C9F
:102CD000102CF9D332E0206848B92A4639466648B4
:102CE00001F048FA4FF41651634801F061F904B05D
:102CF0000020BDE8F087206848B92A4639465E487A
:102D000001F038FA4FF416515B4801F051F904B064
:102D10000120BDE8F087206848B92A463946564860
:102D200001F028FA4FF41651534801F041F904B06C
:102D30000220BDE8F087FFE7102C15D3FDF79AFBC2
:102D40001821016048480168002904BF011D016085
:102D5000A94204D05D224549454800F0F5FB04B086
:102D60004FF0FF30BDE8F0874FF0FF383E4847F89E
:102D70002480002904BF011D01600068A84204D01E
:102D80005D223A493A4800F0DFFB4FF0000ACDF8E7
:102D900008A099F800003A2808BFD9F8010010D01F
:102DA00049466846FFF74AFE6846FFF734FE13259A
:102DB000D8B36846FFF734FE0028684608D0FFF70E
:102DC0001CFE029047F8240004B0E01CBDE8F08728
:102DD000FFF704FE48B316F0020F18BF02252ED0ED
:102DE00016F00C0F18BF45F4007516F0040F18BF4D
:102DF00045F4806506466846FFF71EFE02463068C9
:102E00002B4602A9D0F808C03046E047002808BF8A
:102E10000298D7D00546FDF72DFB6942016047F8BF
:102E200024A004B04046BDE8F087FFE7FDF722FB91
:102E3000056047F824A004B04046BDE8F08716F0CE
:102E4000040F18BF0125CBD116F0080F14BF0925B8
:102E50000025C5E720500000D800001003C009205D
:102E6000275000002F500000D0000010FC5300003D
:102E7000E85300002C020010E000001010B5002202
:102E8000032806DAFDF7F6FA1D2101604FF0FF3046
:102E900010BD0D4B03EB800050F80C0C60B10368C3
:102EA0001B699847040058BF10BDFDF7E3FA614263
:102EB00001604FF0FF3010BDFDF7DCFA0921016021
:102EC0004FF0FF3010BD00002C02001070B5154609
:102ED0000E46032818DA1948006848B9184A1948F4
:102EE000511E01F047F94FF41651164801F060F8F1
:102EF0000024002D06D9315D124801F077FA641CD8
:102F0000A542F8D82C460FE00F4901EB800050F89D
:102F10000C0C58B10168CB6831469847040003D5C2
:102F2000FDF7A8FA61420160281B70BDFDF7A2FA07
:102F3000092101604FF0FF3070BD0000D800001083
:102F400003C00920E00000102C02001070B50D46EF
:102F500004461849284600F07FFCC0B22070FF28C4
:102F600004D12F22144915A000F0EEFA194850F8A8
:102F7000C41F41F4805140F8681BC16F21F04071BB
:102F8000C167C16F41F08071C16713481349006880
:102F90000844401E90FBF1F04FF40011401E41EA3E
:102FA00000200F4908602846BDE87040014900F044
:102FB00081BC0000B44F0000445400006F626A2DD1
:102FC0003E61646320213D20284144434E616D658C
:102FD000294E430000C00F40E8000010405DC600CD
:102FE000004003402F4910B40A6822F0FF020A6033
:102FF0000A680378012404FA03F31A430A600A6892
:1030000042F080720A604A6812F0004FFBD00B68F1
:1030100023F080730B600B68C2F30B1223F0FF03E5
:103020000B600B6890F800C004FA0CFC43EA0C0338
:103030000B600B6843F080730B604B6813F0004F1C
:10304000FBD0D1F800C02CF0807CC1F800C0C3F3E5
:103050000B1C0B6823F0FF030B600B68007804FA6D
:1030600000F018430860086840F080700860486805
:1030700010F0004FFBD00B6823F080730B60C0F39F
:103080000B10624502D9114662468C46844588BFC2
:103090008446624588BF94464FEA1C2010BC40EA33
:1030A0000C1070470040034070B5EFF31080012111
:1030B00021EA000080F0010572B60D4C606800281E
:1030C00008BF25706068B0F1FF3F04D1432209A119
:1030D00018A000F039FA606828B125B9472205A187
:1030E0001EA000F031FA6068401C606070BD0000F6
:1030F00004010010433A5C6D6A5C776F726B737009
:103100006163655C626D5F777261705C3136363524
:103110005C6D6265642D6F735C706C6174666F7258
:103120006D5C6D6265645F637269746963616C2E66
:1031300063000000696E746572727570745F656E0D
:1031400061626C655F636F756E746572203C2055BB
:10315000494E5433325F4D4158000000696E74652A
:103160007272757074735F64697361626C65640018
:1031700010B50E4C6068002808BF10BDEFF310803A
:10318000012121EA000090F0010F04D1582208A18A
:1031900017A000F0D9F96068401E606060680028E0
:1031A00006BF2078002810BD62B610BD04010010D3
:1031B000433A5C6D6A5C776F726B73706163655CD8
:1031C000626D5F777261705C313636355C6D626559
:1031D000642D6F735C706C6174666F726D5C6D6290
:1031E00065645F637269746963616C2E63000000DB
:1031F000696E74657272757074735F64697361620D
:103200006C6564000FB4084810B5017800291CBF34
:1032100010BC5DF814FB0121017003A9029800F0B5
:1032200047FA012000F002F80001001004460848A7
:10323000FDF77FFA0748FDF77CFA00F063FA0028F3
:1032400018BF00F0AFFE002C18BF00F0A7F9FEE792
:10325000D80300102C0400108A68002A01DCFEF755
:10326000F7BD521E8A604A68C0B2531C4B60107092
:1032700070470000004870478851000070B5044650
:1032800000680D46B0F1FF3F04D12C2209490AA085
:1032900000F05AF945B1012D18BF70BDA068016852
:1032A00062681143016070BDA06801686268914363
:1032B000F8E700009C5400006F626A2D3E70696E52
:1032C00020213D202850696E4E616D65294E4300D6
:1032D00070B50C4605460160B1F1FF3F08BF70BDF7
:1032E0000021204600F012FA04F01F00012101FA2B
:1032F00000F0686024F01F0000F11801E960091D6A
:10330000296108396961A86070BD70B5032605465A
:103310000C46FFF7DDFFB4F1FF3F08BF70BD002191
:103320002846FFF7ABFF31462846BDE8704000F065
:1033300059B8000070B50D4604460226FFF7C8FFD5
:10334000B5F1FF3F08BF70BD2068B0F1FF3F04D169
:1033500024220849084800F0F7F8216960680860ED
:1033600001212046FFF78AFF31462046BDE8704024
:1033700000F038B8F0540000CC3300002DE9F041E3
:1033800004460E4602271546FFF7A2FFB6F1FF3F9F
:1033900008BFBDE8F0812068B0F1FF3F04D12422CE
:1033A00009490AA000F0D0F86068002D14BFE16858
:1033B0002169086001212046FFF760FF3946204659
:1033C000BDE8F04100F00EB8F05400006F626A2DC5
:1033D0003E70696E20213D202850696E4E616D65FA
:1033E000294E4300006800F0BFB9000086B00025F8
:1033F0000026002005904FF083414FF0804000F000
:1034000085FA07464FF07E5101F0EAFC044601F0D0
:103410009FFB049079E03D4C2068816820468847F6
:10342000201DFFF7DFFD07462068C168204688475A
:1034300000BF0597049801F0D1FB0746059801F0FD
:10344000E5FB8046324901F0F5FB0446394601F0C0
:10345000BDFA06462F494868314601F0EBFB4FF0B4
:1034600080410390304600F051FA82462948816835
:10347000504601F0DFFB80462749304600F046FA0F
:1034800002902448C168029801F0D4FB82464FF0B4
:103490008141304600F03AFA00901E4801690098D8
:1034A00001F0C8FB1D490290304600F02FFA009051
:1034B00018484169009801F0BDFB0190029901F0A4
:1034C0001DFA8346514601F019FA8146414601F042
:1034D00015FA0746039901F011FA04460D480168F0
:1034E000204601F00BFA054629460D4801F078FC0C
:1034F0000546284601F0D6F907463A460B4609A08C
:10350000FDF72CF8C82001F073F984E7F0000010F3
:103510003333534058510000000040400000A040A9
:10352000000058424C6120706F736974696F6E209F
:103530006475206272617320657374206465203A3B
:1035400020256620636D0A0070B514460D460646B8
:10355000FFF7AAFD23462A46314603A000F07CF877
:10356000BDE8704000F01AB86D6265642061737345
:103570006572746174696F6E206661696C65643A26
:103580002025732C2066696C653A2025732C206CED
:10359000696E65202564200A0000000086B0FFF7F0
:1035A00083FD25496846FFF7C5FE00240098B0F169
:1035B000FF3F04D12422214921A0FFF7C5FF039931
:1035C00001980860962001F013F90098B0F1FF3FD0
:1035D00004D1242219491AA0FFF7B6FF04990198D3
:1035E0000860962001F004F9641C042CDEDB002442
:1035F0000098B0F1FF3F04D12422104910A0FFF73A
:10360000A3FF0399019808604FF4C87001F0F0F827
:103610000098B0F1FF3F04D12422084908A0FFF729
:1036200093FF0499019808604FF4C87001F0E0F826
:10363000641C042CDCDBB8E732C00920F054000025
:103640006F626A2D3E70696E20213D202850696EA0
:103650004E616D65294E43000FB470B5A0B025AC26
:10366000249DFFF721FD23462A4680216846FCF76A
:103670005BFF051E10DD0B48006820B90A4A0B48A5
:10368000511E00F077FD00246E460848315D00F0C1
:10369000ADFE641CAC42F8DBFFF76AFD20B070BCE5
:1036A0005DF814FBD800001003C00920E0000010F2
:1036B00070B5A0B00C460546FFF7F6FC23462A4637
:1036C00080216846FCF730FF051E10DD0A480068BF
:1036D00020B90A4A0A48511E00F04CFD00246E46EB
:1036E0000748315D00F082FE641CAC42F8DBFFF756
:1036F0003FFD20B070BD0000D800001003C00920BD
:10370000E000001000F046BC7047704770B50D46F1
:103710000446B0F1FF3F04D115220D490DA0FFF77B
:1037200013FFA4F10050A0F51C2001090007C20EF0
:10373000880000F1804000F5303001680323934099
:1037400099430160016805FA02F21143016070BDFE
:103750005855000070696E20213D202850696E4E3A
:10376000616D65294E43000070B50C460546B0F109
:10377000FF3F04D120221A491AA0FFF7E5FEA5F168
:103780000050A0F51C204209920002F1804202F58F
:10379000303200F01F03D2F868C0C4F3800101FA90
:1037A00003F32CEA030CC2F868C0D2F868C04CEAF4
:1037B00003039366002918BF70BD02090007C10EFC
:1037C000900000F1804000F53030026C03238B4004
:1037D0009A430264026C04FA01F11143016470BD62
:1037E0005855000070696E20213D202850696E4EAA
:1037F000616D65294E4300000A68B2F1FF3F09D0B0
:103800000A68824201D14868704751F80C2FB2F122
:10381000FF3FF5D14FF0FF3070470000884208BFEE
:103820007047B0F1FF3F04BF0846704710B5B1F1D3
:10383000FF3F08BF10BD03A0FFF7E4FC4FF0FF30CF
:1038400010BD000070696E6D6170206D69732D6D23
:10385000617463680000000010B5B0F1FF3F08BF5D
:1038600010BD0A68B2F1FF3F0CD00A68824204D151
:103870004C68B4F1FF3F0AD106E051F80C2FB2F1C9
:10388000FF3FF2D14FF0FF3402A0FFF7BBFC204610
:1038900010BD000070696E6D6170206E6F742066DF
:1038A0006F756E6420666F722070657269706865EE
:1038B00072616C0010B50446B0F1FF3F08BF10BD47
:1038C0000868B0F1FF3F11D00868A04209D18968AB
:1038D0002046FFF71BFF2046BDE810400221FFF7FE
:1038E00043BF51F80C0FB0F1FF3FEDD1BDE81040E0
:1038F00001A0FFF787BC0000636F756C64206E6FDA
:10390000742070696E6F7574000000002DE9F04D31
:103910000E460023A0F5000C4FF00071354684B030
:1039200002464FF07E5401EB45014FF07F48BCF159
:10393000FE4F80F09F81B1F1804FC0F0DB81FE49E6
:103940000144B1F5005F40F2A78200F58021C90C67
:1039500001F00F07C1F307117F39A2EBC15501EB4D
:10396000030B384601F03AF96FF0030101F0E3FA76
:103970004FF07E5100F0C2FF01460290284601F050
:103980002FFA01902846029900F0B8FF00F5006A6E
:103990006FF30B0A00905146029801F021FA294674
:1039A00000F0ACFF02904FF07E50009901F00EF84D
:1039B00001460090019801F03DF900F500656FF3B4
:1039C0000B052846029901F035F902905146284628
:1039D00001F030F9019901F0F9F9029901F000FACA
:1039E000009901F027F901460190284600F086FF72
:1039F0000146029001F01EF98246D04901F01AF901
:103A0000CF4900F07BFF514601F014F982460021B6
:103A1000284601F090FA00905146029801F00AF908
:103A200005460021019801F086FA294600F066FF5C
:103A300082460146009800F061FF00F500656FF3D3
:103A40000B052946009801F0CBF9514600F056FFCE
:103A50008246BC49284601F0EDF80090BA4950462C
:103A600001F0E8F88246B949284601F0E3F85146EA
:103A700000F044FF82460146009800F03FFF00F549
:103A800000656FF30B052946009801F0A9F951462E
:103A900000F034FF8246AE48784450F8371000EB0F
:103AA000C700019147684FEA0B1001F097F80090AA
:103AB0003946504600F022FF294600F01FFF0199C9
:103AC00000F01CFF009900F019FF00F5006B6FF388
:103AD0000B0B5846009901F083F9019901F080F928
:103AE000294601F07DF9394601F07AF9514601F095
:103AF0006DF906F5006782466FF30B0739463046CD
:103B000001F06EF90021009008464FF0000000F02F
:103B10000C063946584601F08DF8054620F0004065
:103B2000B0F18B4F0ADDB8EB400F07D34FF08B405D
:103B300060F31E052F464FF0000A1FE0384600993B
:103B400000F0DCFE514601F075F807465846009932
:103B500001F070F8394600F0D1FE82460146284651
:103B600000F0CCFE00F500676FF30B0739462846DE
:103B700001F036F9514600F0C1FE824631460C2074
:103B80004FF000005146384600F0B8FE00F0FCFF50
:103B90000646051101F022F8394601F017F95146A1
:103BA00000F0ACFE07466B4901F044F86A4900F0AA
:103BB000A5FE394601F03EF8684900F09FFE3946FF
:103BC00001F038F80146664806F00F06784450F8D0
:103BD000260001F02FF86349794451F8261000F0CF
:103BE0008DFE6149794451F8261000F087FE05F1F9
:103BF0007D01FC2908D2294601F09DF904B0214637
:103C0000BDE8F04D01F016B805F1BF01B1F5BF7F79
:103C100016D8294601F08FF9214601F00BF8054628
:103C2000B8EB450F1AD068000CD02846FEF73AFFD3
:103C3000042808BFFEF75BFF284604B0BDE8F08DFE
:103C4000002D0BDA0220FCF76EFFFEF750FF014655
:103C5000204604B061F31E00BDE8F08D0220FCF7A1
:103C600062FFFEF73FFF0146204604B061F31E00ED
:103C7000BDE8F08DB1F1804F3CD300BF00F1FF41B2
:103C8000B1F1FE4F21D200BF20F00042C5F3C75171
:103C900010467F290DDB9729BFF651AEC1F1960181
:103CA0004FF0010C0CFA01F1A1F1010C1CEA050F17
:103CB00007D00120FCF737FF04B0BDE8F04DFEF758
:103CC0000DBF294218BF294C39E641001CBF4FF0F7
:103CD0008071B1EB400F09D91B2101F02CF902468C
:103CE0006FF01A0310F0004FCED128E6BCF1FE4F62
:103CF00018D224E6B1F1007F0ED336F0004105D092
:103D000006F0004141F0FC552E46B7E7410018BFD0
:103D1000B8EB400F78D8B1E7B1F1807F38BFA5F597
:103D20000006ABD320F000416FF0FF4C104C01EBCC
:103D30000C03A3422FD31DE0001080C07EE24C3E56
:103D4000ABAAAA3E00B038423BAA3842D49AB8BBCC
:103D500008170000FC596337C9FF753A1872313DE6
:103D6000D4160000881600003C160000000080BF3A
:103D7000FFFF3F0025F000439C44A4450BD3B0F166
:103D80007E5F18BF5FEA450C3ED0B1F1FF4F98BF90
:103D9000B3F1FF4F05D904B03146BDE8F04DFEF751
:103DA0009BBEB0F1FF4F0FD0C5F3C7517F2909DB90
:103DB000972911DAC1F19601012202FA01F14A1E96
:103DC0002A4205D0002108E015F0004F55D128E027
:103DD000294218BF012100D1022110F5000F14D093
:103DE00020B3B0F1004F27D010F1814F4ED04FF0EB
:103DF000FE41B1EB400F94BF01200020012101EBF7
:103E0000E571884239D10CE040E015F0004F02D056
:103E1000012936D031E0012902BF3F4804B0BDE896
:103E2000F08D4FF0FF4004B0BDE8F08D15F000407C
:103E30000ED104B0BDE8F08DB5F1FF4F1DD015F5E2
:103E4000000F05D015F0004F14D009B1012907D09B
:103E50000220FCF768FE04B0BDE8F04DFEF737BE67
:103E60000220FCF760FEFEF732FE04B080F0004056
:103E7000BDE8F08D09B1012903D004B00020BDE8F0
:103E8000F08D04B04FF00040BDE8F08D04B04FF06D
:103E90007E50BDE8F08D00BF4FF07E5100F0A0FFD6
:103EA00005466FF0010101F046F81C4900F08EFF55
:103EB000294600F0BFFE4FF07C5100F087FF074617
:103EC0002946084600F0B6FE80F00040394600F072
:103ED000B1FE82461249284600F0ACFE0746114961
:103EE000504600F0A7FE82460F49284600F0A2FE89
:103EF000514600F003FD05460146384600F0FEFC41
:103F000000F5006B6FF30B0B5946384600F068FF65
:103F1000294600F0F3FCECE5000080FFABAAAA3EC6
:103F200000B0B8413BAAB841D49A38BB70B5054639
:103F300000F0C0FB6C684FF0E040626882B1D4E9E9
:103F4000023CD2E900125E1A7CEB02061CD2C91AAE
:103F500062EB0C02B1F1E04372F1000238BF084697
:103F6000D4E902120C18286842F1000601692046C3
:103F70008847284600F09EFB6868D0E90212081BBB
:103F800072EB060038BF70BD28684069BDE870401C
:103F9000004700000248006800F001007047000080
:103FA000F0ED00E084B069461820ABBE04B0704765
:103FB0002DE9F05F0D46064600686349884204DD3E
:103FC0009B22624962A0FFF7BFFA3068A0F18041EE
:103FD0006648B1F5404109D0B1F5804F11D0B1F537
:103FE0000C2F1BD0B1F5102F23D02EE0D0F8A81144
:103FF00021F0C001C0F8A811D0F8A81141F040018B
:1040000009E0D0F8A81121F44071C0F8A811D0F847
:10401000A81141F48071C0F8A81116E0D0F8AC11D5
:1040200021F44031C0F8AC11D0F8AC1141F480312A
:1040300009E0D0F8AC1121F44021C0F8AC11D0F85F
:10404000AC1141F48021C0F8AC1149482A014FF06D
:10405000000900684FF00108B0FBF2F1B0FBF2F389
:1040600002FB13028FB24946002A57D001222C4688
:104070004FF0000C924603E04FF0000C002A47D9A5
:1040800002FB00FB4FF0004313EA4B0F0AD0530032
:104090000CEB020B43430BFB05FBB3FBFBF30AEBFF
:1040A000131309E093000CEB020B43430BFB05FBDE
:1040B000B3FBFBF30AEB5313C3F34F03002B08BF0F
:1040C0000123BCF1000F18BF022B38BF022300FBF5
:1040D00002FB0CEB020E0EFB03FE4FEACE0EBBFB07
:1040E000FEFB0BF1010BD5EB5B0B48BFCBF1000BDB
:1040F000A34507DA5C461F469046E146AB4508BF3C
:10410000012105D00CF1010303F0FF0C9445B7D356
:10411000521CD2B2102A01D20029ADD03068017BE6
:1041200041F0800101733168380A08713068077006
:10413000316849EA081081F828003068017B21F0D5
:1041400080010173BDE8F09F00C00940A855000040
:1041500028696E74296F626A2D3E75617274203C05
:104160003D20554152545F330000000000C00F4015
:10417000E80000102DE9F0478846044617465349E9
:104180004046FFF769FB054651493846FFF764FB97
:1041900001462846FFF742FB0546B0F1FF3F04D138
:1041A0005C224C494CA0FFF7CFF9A5F180414E4865
:1041B0002560B1F5404104BFD0F8C41041F00801BA
:1041C00017D0B1F5804F04BFD0F8C41041F01001F2
:1041D0000FD0B1F50C2F04BFD0F8C41041F080719E
:1041E00007D0B1F5102F04BFD0F8C41041F0007112
:1041F00001D1C0F8C41020680126067220684FF073
:104200000009C0F804904FF416512046FFF7D0FE85
:10421000002003230146024643EA800040EAC10031
:10422000216840EA0210087328494046FFF742FB24
:1042300027493846FFF73EFBB8F1FF3F03D0002186
:104240004046FFF791FAB7F1FF3F03D0002138460F
:10425000FFF78AFAA5F18040B0F5404008BFC4F8E6
:1042600004900FD0B0F5804F08BF66600AD0B0F55B
:104270000C2F08BF022004D0B0F5102F08BF032078
:1042800000D1606061684FF0FF30C1EBC102174997
:10429000034601EBC20250606268C2EBC20201EB4E
:1042A000C2010246C8610021204600F0D3F8A5F102
:1042B0008040B0F5404018BFBDE8F0870C4806606C
:1042C000D4E90012C0E90212BDE8F08738500000BE
:1042D000A4500000A855000028696E742975617209
:1042E0007420213D204E430000C00F406C0200109E
:1042F000D800001070B404680023A4F180459C46E7
:10430000B5F5404504BF0523DFF8C8C013D0B5F5A7
:10431000804F04BF0623DFF8C0C00CD0B5F50C2FCA
:1043200004BF0723DFF8B4C005D0B5F5102F04BFD4
:104330000823DFF8ACC0012505FA01F6B2B16068C8
:104340003043606027480068002B00EB8300C0F812
:1043500040C0BCBF70BC704705FA03F05909890022
:1043600001F1E021C1F8000170BC7047012912D0B1
:104370004268C2EBC20C1C4A02EBCC0292F836C077
:1043800092F835201CEB020F1CBF70BC704700294F
:1043900008BF012100D000216268B243626000685A
:1043A000406805FA01F108421CBF70BC7047002B41
:1043B000BCBF70BC704705FA03F05909890001F1D0
:1043C000E021C1F88001BFF34F8FBFF36F8F70BC46
:1043D00070470000FD450000114600002546000022
:1043E0003946000008ED00E06C02001070B442682D
:1043F000174CC2EBC20204EBC2020025D2F81CC06B
:10440000BCF1FF3F0AD0166B3668136A1E42F7D123
:1044100003681B7D13F0400FF2D00BE003681B7D97
:1044200013F0200F02D082F8345003E092F83430B9
:10443000102BE5D2026811704068C0EBC00004EB9D
:10444000C00090F83410491C80F8341070BC7047DC
:104450006C0200102DE9F84F04460E46D4E9001016
:10446000DFF8ECB099469246594518BF002506D1B1
:104470009BF810105D4621F0C0018BF81010DFF89A
:10448000D480C0EBC00008EBC0074FF0FF31F961EA
:10449000796061680022C1EBC10108EBC1012046CF
:1044A00081F835201146FFF725FF002E08BFBDE833
:1044B000F88F29495046FFF79FF900902749484651
:1044C000FFF79AF9022E18BF032E13D1B9F1FF3F5F
:1044D00010D0584509D145B1287C40F0800028749F
:1044E0001E494846FFF7E6F904E007F11C0049467B
:1044F000FEF70BFF012E1CBF032EBDE8F88FBAF1AB
:10450000FF3F08BFBDE8F88F0720216808720098B8
:1045100058450AD14DB1287C40F0400028745046DF
:10452000BDE8F84F0C49FFF7C5B9381D00225146C8
:10453000FEF724FF61680122C1EBC10108EBC10154
:10454000204681F83520BDE8F84F0021FFF7D2BEA4
:10455000000001406C0200101051000034510000B6
:1045600070B505460068C06880476868416801B357
:10457000D0E90264286840688047B0422CBF00211F
:10458000012111B1001C44F101046968C1E9020470
:1045900069684A68D2E9003CC01A74EB0C0008D381
:1045A000D06848606868016800291CBF9068884727
:1045B000DBE72846BDE87040FFF7B8BC10B50446FD
:1045C0004068007C98B920680068804761680020D6
:1045D00008606168486062680121C2E902006068A1
:1045E0000174204600F066F82046FFF79FFC204645
:1045F00000F060F86068806810BD0000034A9068B1
:104600000021C0F3420000F021B8000000C00040CB
:10461000034A90680121C0F3420000F017B800007F
:1046200000000140034A90680221C0F3420000F0FC
:104630000DB8000000800940034A90680321C0F3D0
:10464000420000F003B8000000C0094030B4DFF8B9
:104650005CC0C1EBC1040CEBC403012808BF0121FD
:1046600012D002281CBF30BC704700215868B0F13E
:10467000FF3F09D018699D68056093F8360018B9A6
:10468000506820F0010050605CF83400002804BF3E
:1046900030BC7047002901BF93F83620002A30BC97
:1046A0007047034A526830BC104700006C0200108B
:1046B000D800001070B505464068D0E9026428684B
:1046C00040688047B04234BF0121002111B1001C75
:1046D00044F101046968C1E9020470BD0149012087
:1046E00008607047004009400248416921F001011B
:1046F00041617047004009404FF0E0211020C1F8AF
:104700000002704712480168002918BF7047012154
:104710000160104850F8C42F42F4000202600E48B5
:10472000002202670D4A12689208022343600C4B74
:10473000B2FBF3F2521EC26041600B4809490068A7
:1047400001654FF0E0211020C1F800017047000022
:10475000EC00001000C00F4000400940E8000010CD
:1047600040420F006D47000008ED00E00148FFF7F0
:10477000F7BE000088510000114912480A68EAB9E2
:1047800001220A60104951F8C43F43F400030B6052
:10479000002101670D4909688908022343600C4B19
:1047A000B1FBF3F1491EC16042600B49094A096837
:1047B0000A654FF0E0221021C2F8001180687047AE
:1047C000EC0000100040094000C00F40E80000105D
:1047D00040420F006D47000008ED00E0034988618A
:1047E000486940F0010048617047000000400940FE
:1047F00070B54FF47A7100FB01F5FEF73BFD0646FC
:10480000FFF7DCFE04463046FFF7D8FE001BA84247
:10481000F9D370BD10B500290AD00878002807D058
:1048200005487844FCF7D6F8002801D0002010BDD8
:104830000248784410BD0000FA0D0000F20D00009F
:1048400010B500290AD00878002807D00548784418
:10485000FCF7C0F8002801D0002010BD02487844C1
:1048600010BD0000EA0D0000E20D000010B5044686
:104870000068002806BF201D20602068211D884296
:1048800004D05D2202490348FEF75EFE206810BD99
:10489000FC530000E85300000808A0F500114FEA9F
:1048A0003101704743004FEAD30C4FEA3C0C4340C0
:1048B0001FBF40070CF1605113F0FE4F70471CF012
:1048C000006F03D100200CF0004170470CF0004352
:1048D00043EA507010B540EACC0000F02CFA00BF5B
:1048E000000000924FEA0001FFF7D6BF4FF00041F1
:1048F0004FF00000A1F500217047000090EA010F81
:1049000048BF81F0004100F17282421A3CBF801A18
:1049100089184FEAD0524FF07F4C1CEA410FA2EBAE
:10492000D15318BF9CEA026F00F03B804FF0004C5F
:104930004CEA00204CEA012121FA03FC10EB0C0C9C
:104940001ED202F1FF325FEA1C2040EBC25038BF9A
:1049500070471CF07F0F4FEA400C18BFBCF17F4F2F
:1049600038BF7047C3F12003994008BF20F0010011
:10497000BCF17F4F38BF7047A0F1C04000F021BAB2
:104980004FEA3C00000A40EBC25028BF1CF0FF0F6A
:104990004FEA400CE6D018BFBCF17F4F38BF7047DC
:1049A000EAE79CEA026F05D010EA5C0F08BF00F04E
:1049B0000040704710B500F0BEF900BF64FBBE3E7A
:1049C000014800F086BA00BF0000C07F4FF47F0CA2
:1049D0001CEAD0121EBF1CEAD11392EA0C0F93EA14
:1049E0000C0F00F0858090EA010F48BF42F48072FE
:1049F00040F4000C41F400002CF07F4120F07F4097
:104A000000B58142A2EB03020FF2081CACEB504E42
:104A1000C0F100009EF800E04FEA4E0E00FB0EFCD5
:104A200038BF49004FEA2C1C02F5FA020CFB0EF3CA
:104A30004FEACE1E4FEA112C4FEAC1210EEB635E06
:104A400042EB22420EFB0CFC4FEA1C5300FB03110D
:104A50004FEA112C4FEA01310EFB0CFC4FEADC4C03
:104A600000FB0C11C14228BF09184CEB03335DF861
:104A700004EB10EB410143EBC250B2F57C0F38BFA1
:104A8000704729D512F0F00F1CBF00F1C04000F0B4
:104A900000407047008182838485868788898B8C5B
:104AA0008D8E8F919293959697999A9C9D9FA0A297
:104AB000A3A5A7A8AAACAEB0B2B3B5B7B9BCBEC0E7
:104AC000C2C5C7C9CCCED1D4D7D9DCDFE2E6E9EC88
:104AD000F0F3F7FAFE0000004FEA400C0CF1807C86
:104AE000BCF17E4F28BF7047B0F1C04000F069B9FB
:104AF00090EA010F0CEAD11348BF42F4807262457C
:104B000038BF634507D213F47F0F16D080EA010047
:104B100000F00040704710B500F00DF9097EFC3E32
:104B200000F005B880EA010000F00040704780EA1C
:104B3000010000F0004000F044B912F47F0F04BF00
:104B40000248704780EA010000F03BB90000C07FD6
:104B500041000B0ED3F19E0208D950F400034FEA36
:104B6000032323FA02F048BF4042704710B500F01B
:104B7000E2F800BF49922480002070476FF00042A5
:104B800082EA20007047000041000B0ED3F19E0224
:104B900016D950F400034FEA032333FA02FC0AD378
:104BA00063FA02F383EA0C0393F0004F0CF1010C5B
:104BB00008BF2CF0010C5CEA100028BF404270478F
:104BC00010B500F0B8F800BF49922480002070476B
:104BD0006FF0004282EA20007047000010F00041B0
:104BE00048BF4042B0FA80F310FA03F2C3F19D03CC
:104BF0000BD051EAC35101EB1220530638BF704766
:104C000000F1010008BF20F001007047B0FA80F306
:104C100010FA03F2C3F19D030AD0D90501EB12206B
:104C2000530638BF704700F1010008BF20F00100B3
:104C3000704700004FF47F0C1CEAD0121EBF1CEA24
:104C4000D11392EA0C0F93EA0C0F00F0478090EA20
:104C5000010F48BF42F480724FF0004C4CEA002034
:104C60004CEA012102EB0302A0FB0113A2F50002B2
:104C7000002918BF43F001035B0028BF4FEA33034C
:104C800042EB22425FEA132C4CEBC2502EBFBCEB2E
:104C9000436FB2F57C0F70474FEA036CBCF1004FD5
:104CA00008BF20F00100B2F57C0F38BF70470BD56C
:104CB00082F0FF0212F5803FC8BF704700F1C0408C
:104CC000D8BF00F00040704700F5000C5FEA4C0CC4
:104CD00048BF7047B0F1C04000F073B890EA010FD0
:104CE0000CEAD11348BF42F48072624538BF634575
:104CF00004D280EA010000F00040704710B500F0D7
:104D00001AF800BF8900013E00F007B800F009B8AA
:104D10005FEA410C5FEA1C6C08D080EA010000F0F9
:104D200050B85FEA400C5FEA1C6CF6D14FF00040CF
:104D3000A0F5800070470EF1020E2EF0030E5EF813
:104D4000044B244204D44FEA4102B2F17F4F11D800
:104D50004FEA4003B3F17F4F0CD80ED14FEAD07C1D
:104D6000B2F17F4F0CEB4C0C0CF1020C08BF4CEB7A
:104D7000D17C04E04FF0080C01E04FEAD17C0CEB51
:104D80004C0324FA03F404F00704B4F1040C06D233
:104D90000EEB840CBDE810404CF0010C6047DFE8DE
:104DA0000CF0070802024FF00040A0F5800010BD93
:104DB0000846420018BFD2F1807288BF00F0004060
:104DC00010BDFF2141EAD050C005704780F000407F
:104DD00090EA010F7FF599AD81F0004100F007B82E
:104DE00090EA010F48BF81F000413FF58EAD421AB5
:104DF00004D882F00042A0EB020011444FEAD052E6
:104E00004FF07F4C1CEA410FA2EBD15318BF9CEA34
:104E1000026F4AD04FF0004C4CEA00204CEA0121CE
:104E200021FA03FCB0EB0C0C0FD412F0FE0F36D0BD
:104E30005FEA4C001DD5001240EBC25038BF7047EE
:104E40001CF03F0F18BF70470BE0A2F101025FEAB0
:104E50001C2040EBC25038BF70471CF07F0F18BFBA
:104E60007047C3F12003994014BF401E20F0010099
:104E7000704780084FEA122308BF7047B0FA80FCE1
:104E8000A2EB0C02CCF1280C60FA0CF093EA122F82
:104E900004BF00EBC25070474FEAC3707047130A5B
:104EA0005FEADC1008BF7047F6E79CEA026F04D0A7
:104EB00010EA5C0F08BF0020704710B5FFF73BFFFA
:104EC00040DFF63E81F000407047FBF7BEBFFCF7C5
:104ED000E3BC0CF00F03092B08BF082000F0518041
:104EE0000A2B0BD0082B18BF704708BF1CF0400FCF
:104EF0000AD04FF000004FF0000170471CF0400F47
:104F000018BF4FF0004070471CF0100F08D020F081
:104F1000704300F07F4242EAD3014FEA437070478A
:104F200000F0604021F07F4242EA000201F07F4041
:104F300040EA727070474FF0FF0212EAD0521CBF75
:104F400092F0FF038B42C2BFD14200EBC1507047C9
:104F5000002A0AD0002B0BD0002900F00040A4BF8B
:104F600040F0FE4040F40000704700F00040704701
:104F700043024FF00B0C18BF4CF0806C7FF420AD57
:104F800070471CF4801F11D01CF4E02F03D06FEA8F
:104F9000CC31490070474FF04050EFF3008222F0CF
:104FA000704242EA000282F3008870474FF000002E
:104FB0007047000017C00920000000000100000039
:104FC00018C00920010000000100000019C00920DC
:104FD00002000000010000001AC0092003000000C8
:104FE000010000003EC00920040000000300000092
:104FF0003FC00920050000000300000002C0092096
:10500000070000000200000003C0092006000000A5
:1050100002000000FFFFFFFFFFFFFFFF0000000096
:105020002F737464696E002F7374646F7574002F2E
:10503000737464657272000000C0092000C00940EA
:105040000200000002C0092000C000400100000072
:105050000AC0092000800940010000000FC009209B
:10506000000001400100000019C0092000C00940F3
:105070000300000040C009200000014002000000C1
:1050800048C0092000800940020000009CC009209F
:1050900000C0094003000000FFFFFFFFFFFFFFFF0C
:1050A0000000000001C0092000C00940020000000B
:1050B00003C0092000C00040010000000BC009200F
:1050C000008009400100000010C0092000000140DC
:1050D000010000001AC0092000C0094003000000C0
:1050E00041C00920000001400200000049C0092021
:1050F00000800940020000009DC0092000C0094056
:1051000003000000FFFFFFFFFFFFFFFF00000000A4
:1051100016C00920000001400100000047C009201E
:105120000000014002000000FFFFFFFFFFFFFFFF44
:105130000000000011C00920000001400100000033
:1051400042C009200000014002000000FFFFFFFFF5
:10515000FFFFFFFF00000000EE7CD940083D18C1B2
:10516000713D3141B98DE0C039450740EC5178BE01
:105170000547000079470000E9460000DD460000D1
:10518000DD470000F9460000705100006803001080
:105190000400000800000000000000020001000000
:1051A0001000000000000000000000000000B33FFD
:1051B000B2BE7D3A00002E40DFCF513800007E4065
:1051C000BF51FABA00E0A44019DAC3BA00E0C840FF
:1051D000C2ED8AB90040EB40CD1F2CBA0010064149
:1051E0002AFFFABA00C01541DFCFD13700D02441E1
:1051F0009A97703A0050334189478E3600404141BA
:10520000E75B9D3800B04E41C00A98B900A05B41F1
:10521000558F943A00306841DA92C0BA0040744128
:1052200062B3C63A0000803F00A0853F00908B3FEC
:1052300000C0913F0030983F00F09E3F00F0A53F36
:105240000050AD3F0000B53F0000BD3F0060C53FCE
:105250000020CE3F0040D73F00C0E03F00C0EA3F03
:105260000020F53F000000007D36AC397D3C383928
:10527000EBDCF438320A7E39124C26399B6AED3960
:10528000A4EE83397F661E39F6398A392B42653997
:10529000A48211395B991F39C3EECD39DDE7C637DA
:1052A000A5A22F390000803FC3AA853FC2958B3F3E
:1052B000D3C3913FF037983F32F59E3FD7FEA53FCD
:1052C0003F58AD3FF304B53FA408BD3F2A67C53F33
:1052D0008C24CE3FFD44D73FDFCCE03FC7C0EA3F40
:1052E0007D25F53F00000000000000003031323322
:1052F000343536373839414243444546403058000A
:10530000303132333435363738396162636465663B
:1053100040307800303132333435363738396162D5
:10532000636465667870003031323334353637382F
:1053300039414243444546585000000002400000B5
:10534000000000A00000000005400000000000C8B0
:10535000000000000C4000000000409C0000000025
:10536000194000000020BCBE0000000034400000D6
:10537000BFC91B8E00000004B5400000504BCFD0C9
:105380006607E2CF010000006C4100003E8251AA96
:10539000DFEEA73401000000D9420000DCB5A0E236
:1053A0003A301F97FFFFFFFFB4450000FD25A0C85E
:1053B000E9A3C14FFFFFFFFFFF3F00000000008097
:1053C00000000000FF3F000000000080000000001F
:1053D000000000000000000069290000000000003B
:1053E00041290000552900005F707472203D3D2066
:1053F0002854202A29265F6461746100433A2F6D86
:105400006A2F776F726B73706163652F626D5F7760
:105410007261702F313636352F6D6265642D6F7372
:105420002F4255494C442F6D6265642F706C617436
:10543000666F726D2F53696E676C65746F6E507412
:10544000722E6800433A5C6D6A5C776F726B7370A2
:105450006163655C626D5F777261705C31363635B1
:105460005C6D6265642D6F735C74617267657473E3
:105470005C5441524745545F4E58505C544152472A
:1054800045545F4C5043313736585C616E616C6FE8
:1054900067696E5F6170692E63000000433A5C6D5E
:1054A0006A5C776F726B73706163655C626D5F7766
:1054B0007261705C313636355C6D6265642D6F7378
:1054C0005C746172676574735C5441524745545F04
:1054D0004E58505C5441524745545F4C504331370D
:1054E00036585C6770696F5F6170692E63000000F9
:1054F000433A2F6D6A2F776F726B73706163652FFC
:10550000626D5F777261702F313636352F6D62654F
:10551000642D6F732F4255494C442F6D6265642F83
:105520005441524745545F4C5043313736382F541D
:1055300041524745545F4E58502F544152474554AD
:105540005F4C5043313736582F6770696F5F6F6219
:105550006A6563742E680000433A5C6D6A5C776F1D
:10556000726B73706163655C626D5F777261705CB2
:10557000313636355C6D6265642D6F735C746172B3
:10558000676574735C5441524745545F4E58505C94
:105590005441524745545F4C5043313736585C7044
:1055A000696E6D61702E6300433A5C6D6A5C776F63
:1055B000726B73706163655C626D5F777261705C62
:1055C000313636355C6D6265642D6F735C74617263
:1055D000676574735C5441524745545F4E58505C44
:1055E0005441524745545F4C5043313736585C73F1
:1055F000657269616C5F6170692E63004C570000D1
:10560000C8000010600000003C030000AC57000020
:105610002801001070030000580300001C00000067
:1056200043000000F8FFFFFF0C0000000E00000028
:105630000F0000002E0000001001000043000000D9
:10564000F8FFFFFF004040404040404040404141A3
:105650004141414040404040404040404040404047
:1056600040404040400502020202020202020202E1
:1056700002020202022020202020202020202002DE
:10568000020202020202909090909090101010106E
:10569000101010101010101010101010101010100A
:1056A000020202020202888888888888080808089E
:1056B000080808080808080808080808080808086A
:1056C0000202020240000000000000000000000092
:1056D00000000000000000000000000000000000CA
:1056E00000000000000000000000000000000000BA
:1056F00000000000000000000000000000000000AA
:105700000000000000000000000000000000000099
:105710000000000000000000000000000000000089
:105720000000000000000000000000000000000079
:105730000000000000000000000000000000000069
:105740000000000000000000B1D3FFFF00000000D7
:105750000000000000000000000000000000000049
:1057600000000000000000000000000000D8B805A4
:105770000000000000000000000000000000000029
:105780000000000000000000000000000000000019
:105790000000000000000000000000000000000009
:0C57A000000000000000000000000000FD
:0400000500000301F3
:00000001FF
