:020000040000FA
:100000000080001051040000590400005B0400004F
:100010005D0400005F0400006104000000000000B7
:100020000000000000000000000000006304000069
:10003000650400000000000067040000690400007F
:100040006B0400006B0400006B0400006B040000F4
:100050006B0400006B0400006B0400006B040000E4
:100060006B0400006B0400006B0400006B040000D4
:100070006B0400006B0400006B0400006B040000C4
:100080006B0400006B0400006B0400006B040000B4
:100090006B0400006B0400006B0400006B040000A4
:1000A0006B0400006B0400006B0400006B04000094
:1000B0006B0400006B0400006B0400006B04000084
:1000C0006B040000000000000000000000000000C1
:1000D0000000000000000000000000000000000020
:1000E0000000000000000000000000000000000010
:1000F0000000000000000000000000000000000000
:1001000000000000000000000000000000000000EF
:1002F000000000000000000000000000FFFFFFFF02
:1003000000F002F800F096F80AA090E8000C824491
:100310008344AAF10107DA4501D100F08BF8AFF26E
:10032000090EBAE80F0013F0010F18BFFB1A43F0D3
:10033000010318475C4000007C400000103A24BFD5
:1003400078C878C1FAD8520724BF30C830C144BF3A
:1003500004680C607047000000230024002500267C
:10036000103A28BF78C1FBD8520728BF30C148BF18
:100370000B6070476E2900F09F83702900F0E984BC
:10038000662903F0F985652903F0F685672903F0EE
:10039000F385612903F0F28503681B0A28BF41F049
:1003A0008001692900F04C83642900F04983752994
:1003B00000F046836F2900F07684782900F0B58438
:1003C000E92900F01184E42900F00E84F52900F0F9
:1003D0000B84EF2900F07384F82900F0B4840368DB
:1003E000DB0928BF41F08001632901F0AB83732949
:1003F00001F0B083E32901F0BB83F32901F0C0834E
:10040000002070471FB59DE8030000F081FA01F05D
:100410003BFC04000020002103F09AFC401C6060BB
:100420000020002103F07EFCE06000F079FE00F087
:1004300041FA1FBD02F068FA114603B402F078FADF
:1004400003BCFFF7DFFF02F00CF902F019FD00001A
:100450000648804706480047FEE7FEE7FEE7FEE75E
:10046000FEE7FEE7FEE7FEE7FEE7FEE77126000097
:1004700001030000004870477003001070B5064685
:1004800000F02AFA056806F10B0020F00704B442D8
:100490009CBF002070BD2B466A68BAB11068A042AC
:1004A00010D304F1080188423CBF5068586007D35C
:1004B0005168101941601168091B0160586014608F
:1004C000101D70BD13465268002AE7D12146284608
:1004D00000F00AFA0028DED170BD70B50446051F91
:1004E00000F0FAF90068002C14BF446870BD002CBD
:1004F00018BFAC423CBF20466468F8D301680A18B4
:10050000AA4218BF456003D12A680546114401601C
:1005100028684119A1421CBF6C6070BD61686960A8
:1005200021680844286070BD7CB51D4616460C0045
:10053000009001D02044401E074B7B442A46694668
:100540000190304600F0D1FA05461CB10020694602
:1005500000F0DEFA28467CBDDD05000070B50446DB
:10056000C068810713D0800601D5A56A04E0A1699F
:10057000606808442169451A204600F08DFD00227C
:1005800006462946204600F0B3FC304670BD0020E8
:1005900070BD70B510B1BDE87040DFE70025074CB5
:1005A0006E1E07E02046FFF7D9FF00B13546206DEB
:1005B00020F00104002CF5D1284670BD7403001012
:1005C0002DE9F0410C4607461646104600F044FE61
:1005D0002078611C61280AD0722802D077283CD18B
:1005E00002E00125002405E00225042402E008249D
:1005F00048F2020511F8010B2B2806D0622809D019
:1006000011F8010C74280AD00BE045F0030544F002
:100610000204EFE745F0040544F00104EAE744F082
:1006200010043846214602F0FDF9411C15D0002186
:10063000316171604FF40071F560F1617061200704
:1006400004D530460222002100F052FC306D40F00B
:10065000010030653046BDE8F0810020FBE72DE960
:10066000F0410D460646104C206DC10704D04108EC
:1006700004D020F00104F7E722460EE05420FFF7F3
:10068000FDFE07000ED0206D47F001010843542104
:100690002065384600F0A6F83A4629463046BDE8BF
:1006A000F0418DE70020D6E77403001010B5431C1D
:1006B00002E010F8011B71B18107FAD14FF001324D
:1006C00002C88C1A8C4314EAC211F9D0C01A0A0667
:1006D00003D0C01E10BDC01A10BD0A0401D0801E78
:1006E00010BD0902FCD0401E10BD40EA010370B5E8
:1006F0009B072ED14FF00136042A2AD308C810C90F
:100700009D1B9D43121F15EAC61517D0D8B2E1B242
:10071000401A50EA056110D198B2A1B2401A50EACD
:1007200005410AD123F07F4024F07F41401A50EA6E
:10073000052102D1180EA0EB146070BDA342DBD0DE
:1007400018BA21BA884201D9012070BD4FF0FF309C
:1007500070BD0AB9002070BD10F8013B11F8014BC3
:1007600063B1A3420AD1521E08D010F8013B11F820
:10077000014B1BB1A34201D1521EEDD1181B70BD1C
:1007800010B5203AC0F00B80B1E81850203AA0E82C
:100790001850B1E81850A0E81850BFF4F5AF5FEA60
:1007A000027C24BFB1E81850A0E8185044BF18C913
:1007B00018C0BDE810405FEA827C24BF51F8043BBA
:1007C00040F8043B08BF7047D20728BF31F8023B0E
:1007D00048BF11F8012B28BF20F8023B48BF00F8A2
:1007E000012B70474FF0000200B513469446964621
:1007F000203922BFA0E80C50A0E80C50B1F1200134
:10080000BFF4F7AF090728BFA0E80C5048BF0CC0E1
:100810005DF804EB890028BF40F8042B08BF70473F
:1008200048BF20F8022B11F0804F18BF00F8012BB1
:10083000704700004FF0013C50F8042B51F8043B86
:100840009A4221D1A2EB0C03934313EACC1317D1A4
:1008500050F8042B51F8043B9A4215D1A2EB0C033B
:10086000934313EACC130BD150F8042B51F8043BFB
:100870009A4209D1A2EB0C03934313EACC13DBD0C9
:100880004FF00000704700BFD01A01BAB1FA81F1F1
:1008900001F0180122FA01F0CB40C1F12001DBB2D6
:1008A000C0B2C01A2CFA01F3D11A914311EAC31154
:1008B000E6D1704770B5064C7C44064D7D4403E09C
:1008C000206820448047241DAC42F9D170BD00004F
:1008D000203C0000203C00000048704770040010DD
:1008E000704770477047704738B504460A46002085
:1008F000694601F0A4F9002808BF38BD02460099F6
:10090000204600F0CFFC012038BD012001F084B961
:10091000F8B501F089F9054600200C46102000BF0B
:100920000646A819A0420DD932466946002001F0BA
:1009300086F9070008BF01F06FF90098A04218BFC0
:100940000546C419FFF7C8FF05600746F01D20F0F3
:1009500007004619284600F00AF8B44208BFF8BD5F
:10096000A21B31463868BDE8F84000F09BBC00216E
:100970000160C0E9011070471020704770B504464F
:1009800085690068C10601D5302600E02026C00731
:1009900007D070BDD4E9012130469047206A401C41
:1009A00020626D1EF6D570BD70B50446856900786D
:1009B000C00707D170BDD4E9012120209047206AEB
:1009C000401C20626D1EF6D570BD09684A0501D530
:1009D00040B27047C905FCD500B2704709684A05A6
:1009E00001D5C0B27047C905FCD580B2704770B55B
:1009F0000C460546012A05D02878800600D5EA690C
:100A0000002302E0012305E05B1C934202D2E05C7C
:100A10000028F9D1A869E618C01AA861286A184404
:100A200028622846FFF7AAFF04E0D5E9012114F85F
:100A3000010B9047B442F8D32846FFF7B5FF70BDCD
:100A40002DE9F0410646002410687529314616A5A7
:100A500010D0FFF7BAFF002802DA404213A507E0E2
:100A600031688A0701D512A502E0490704D511A50E
:100A7000012401E0FFF7B2FF00210A2206F124075A
:100A800009E0B0FBF2FCB0FBF2F302FB1C003030DB
:100A900078541846491C0028F3D123462A4630468C
:100AA000BDE8F04100F05DBC000000002D0000003A
:100AB0002B0000002000000011680268006A530546
:100AC00001D508700AE0D30501D5088006E01306B9
:100AD00003D5C217C1E9000200E008600120704799
:100AE00001694A1C02610878704700B58FB0CDE9F2
:100AF00001310021059105497944CDE903101146E2
:100B0000684600F031F90FB000BD0000E5FFFFFFBF
:100B10000A6802F8010B0A607047D1E900239A4283
:100B200002D2531C0B601070704700002DE9FF5F6C
:100B300015468A460446DFF8AC80F8440027D8E919
:100B400000103E46CDE9001010E03AF816106A4653
:100B500002A801F03AF8411C07D02178890603D594
:100B6000E269391891420DD80744761C2078800636
:100B700002D5E069B84205DDAE42E6DB3AF8160080
:100B80000028E2D1A069C01BA0612046FFF7F6FE55
:100B9000D8E90010CDE90010002017E03AF818104D
:100BA0006A4602A801F011F8B0F1FF3F81460BD070
:100BB00000250DF1080B05E0D4E901211BF8050023
:100BC00090476D1C4D45F7D308F10100B0428046B7
:100BD000E4DB206A384420622046FFF7E5FEBDE8EA
:100BE000FF9F00009A3500002DE9F0418046D21D9C
:100BF00022F007020025D2E90002F52915A614D03B
:100C0000011E72F1000106DA0023D0EB030063EB52
:100C1000020211A608E0D8F800108B0701D50FA634
:100C200002E0490701D50EA601251146002408F16E
:100C3000240704E000F050FB30323A55641C50EABF
:100C40000102F7D12B46324621464046BDE8F0412D
:100C500000F087BB000000002D0000002B0000000A
:100C60002000000030B4002100F1240408E002F06C
:100C70000705D208303542EA4372DB086554491C47
:100C800052EA0305F3D10468002310A2250707D513
:100C9000A40600D421B1C46901230DA2641EC4615D
:100CA00030BC00F05EBB10B5044621461068FFF76B
:100CB00095FE02462046BDE810400023D2E7D21D33
:100CC00022F00701D1E90023CCE70000000000007A
:100CD00030000000F0B40D460188090502D5214C12
:100CE0007C4402E01F4C7C440E34002100F12406B9
:100CF00008E002F00F071209E75D42EA03721B09E0
:100D00007754491C52EA0307F3D1027800231207F3
:100D100004D5702D06D009B1022311342246F0BC4F
:100D200000F01FBB01231034F8E770B504460D46F0
:100D300021461068FFF752FE024629462046BDE8CC
:100D400070400023C6E7D21D22F00703D3E9002339
:100D5000C0E70368126843F0200303600823C361FF
:100D60000023B7E7FC3300002DE9F05F8946044615
:100D70004FF0000ADFF874B1FB44C0F820A0204611
:100D8000E1688847002874D0252806D0D4E90121DD
:100D90009047206A401C2062F1E700265F4620460B
:100DA000E16888472028054607DB312D05D27819F0
:100DB00010F8200C08B10643F1E7B00701D526F082
:100DC0000406C4F81CA00027C4F818A02A2D09D0D6
:100DD000284601F09DFD38B304EB8708303DC8F884
:100DE000185019E059F8041B204604EB8702916162
:100DF000E1688847012F054618D1E069002820DA0C
:100E000026F020061DE0D8F8180000EB800005EB66
:100E100040003038C8F818002046E1688847054689
:100E200001F076FD0028EED1012F0AD02E2D08D139
:100E30002046E16888477F1C0546022F46F02006C1
:100E4000C4DBA069002803DA404246F00106A06135
:100E5000F00701D026F010066C2D0BD0682D09D0BC
:100E60004C2D39D06A2D35D0742D35D07A2D33D014
:100E700016E038E0E1682F4620468847B84205462C
:100E800009D16C2F26D04FF48060E16806432046DC
:100E90008847054604E06C2F1AD04FF48070064353
:100EA0000DB3A5F14100192802D8203546F400669B
:100EB0004A462946204626604E46FFF75BFA80B137
:100EC00001280BD0F61D26F0070000F1080956E7AF
:100ED0004020E4E78020D8E70020D6E706F10409A7
:100EE0004DE7284652E7206ABDE8F09F8C330000AA
:100EF0002DE9F041044616460D464769007B800700
:100F00002ED0384601F06EFD50BB3EB3012E02D00C
:100F1000022E25D104E0204600F036FE05441DE0F7
:100F2000384601F039FDE168002841F01001E16028
:100F300005DA204600F07CF80120BDE8F081C90305
:100F40000BD56268E16A914200D81146A26911444A
:100F50002269891A814200DD08460544002D01DA24
:100F60000220EAE7E16A6068E268814206D2910302
:100F7000E06203D522F4003141F01002A669002797
:100F8000AE4213DCE16A814201D90B4600E0034620
:100F900003EB060C2369ACEB030CAC4506DD814288
:100FA00001D98C4600E084469C4505D1A7602760A6
:100FB00042F02000A5620DE0AD1BE669AE1B814248
:100FC000A66000D90846C01A281A20605819606027
:100FD00022F0200003490840E060002084F84870B7
:100FE000ABE70000BFCFD7FF70B5C468A50713D02B
:100FF000650211D4B2F5807F09D0B2F5007F06D02A
:10100000B2F5806F08D1012300F1240106E05D1ED6
:101010006FF07F46B54201D3012070BD0161C3610D
:10102000416024F470611143C160002070BD000074
:10103000C16821F4001141F08001C160002181608C
:10104000016070472DE9F047814614460E464FF087
:10105000FF383248D5685769054209D03846A1693A
:1010600001F0E4FD002811DB2C48C0430540E56099
:101070002B4632464946384601F000FEA16920F071
:101080000042B21A11440028A16103D02046FFF7A4
:10109000CFFF4046BDE8F08770B504460569C06AD9
:1010A0006168884200D80846E16821F42011E160B7
:1010B000C90312D5A84208D02246411B2846FFF793
:1010C000C1FF10B14FF0FF3070BD0020E562C4E9F0
:1010D0000150E06820F48030E060002070BD10B561
:1010E0000446C06820F02000E060A16AA069884240
:1010F0000DD02046FFF7D0FFE06820F4405040F0CC
:101100001000E060A06AA0612069E062606044F2C3
:101110004001E0688843E06010BD0000100002005C
:1011200010B542485421FFF75DFB41485421FFF7B9
:1011300059FB40485421FFF755FB3F493B483C4A87
:101140003F4B08603D490A603A491960531C0365EA
:10115000481C1065012008653B48344A39A1784491
:10116000FFF72EFA20B9384878440A3800F04DFDD0
:1011700037482F4A35A17844FFF722FA20B934487E
:1011800078440A3800F041FD32482A4A2FA17844B9
:10119000FFF716FA20B92F4878440A3800F035FDD9
:1011A00040232248DC0000212246FFF71DFF20B12A
:1011B00025487844543800F028FD1D482246402335
:1011C0000021FFF711FF20B121487844543800F086
:1011D0001CFD1848224610230021FFF705FF0028B8
:1011E00006D01C487844BDE81040563800F00DBDCC
:1011F00010BD104870B5006D20F001040B4800F0E0
:101200002BF80B4800F028F80A4800F025F809E010
:10121000206D20F00105204600F01EF82046FFF763
:101220005CF92C46002CF3D170BD00007403001053
:10123000C80300101C040010080100100C0100106D
:1012400010010010720000001E2E00007700000048
:101250000D2E0000FD2D00002DE9F04704464FF053
:1012600000094FF0FF37C568D4E90486A80707D006
:101270002046FFF711FF304601F068FB002802DA34
:101280003846BDE8F087280502D54046FFF725F926
:101290004C212046FFF7A6FA206D20F001002065C2
:1012A0004846EEE7034640688C46002818BF88424F
:1012B0003CBF03464068F8D318681844884207D0FA
:1012C0000CF1030020F00700001D411A521A0146DC
:1012D000081D0A60FFF701B930B5B0F10A024FEA04
:1012E000900E71F100034EEA817EB0EB0E0061EBCF
:1012F00091014FEA101E4EEA017E10EB0E0041EB09
:1013000011114FEA102E4EEA016E10EB0E0041EB68
:1013100011214FEA104E4EEA014E10EB0E0041EB48
:101320001141401841F100014FEAD00040EA4170FC
:101330004FEAD10110EB80054FEA810444EA907432
:1013400044EB01046D1944EB0404521BA3414FF01C
:10135000000348BF0A3200D530BD401C41F10001F6
:1013600030BD2DE9F0470D4699469246044600F1FE
:1013700024080168880604D5E06921F01001216085
:1013800000E00120A84201DD471B00E00027A16921
:101390007A1902EB0900081AA0612078C00602D46D
:1013A0002046FFF7EBFA002608E0D4E901211AF8FD
:1013B00006009047206A401C761C20624E45F4DBF4
:1013C0002078C0060AD52046FFF7D8FA06E0D4E90F
:1013D000012130209047206A401C2062381EA7F16E
:1013E0000107F4DC07E0D4E9012118F80500904773
:1013F000206A401C2062281EA5F10105F3DC20466E
:10140000FFF7D2FA2078000602D50220BDE8F08767
:101410000120FBE770472DE9FF4F0C461E464FF0B9
:10142000FF378BB0D2E90001DDF860800A908A4670
:10143000C1F30A5505B93D46002108464FF00000AA
:10144000BAF1000F00F4400005DA00EB80004FF421
:10145000400101EA50004FEA9059B9F1010F00DD57
:10146000B9460A9850EA4A000ED044F61050A5F248
:10147000FF3545432F14B8F1000F1ED07542291EC9
:101480001EDDC9F100021CE0B8F1010F4FF00000B1
:1014900001D0302103E0F24305E02154401CB0426A
:1014A000FBDB30460022002121540B99C1F8088053
:1014B000C1E900200FB0BDE8F08FBD1B6D1CDEE759
:1014C0004A4600DA694206A800F022FC06AB93E81F
:1014D000070003AB83E8070050460A9900F0F9FCC7
:1014E0008DE80700A0F500501F3800900398002DEC
:1014F0000ADD42F21F014A460844002303A9039073
:10150000684600F062FF09E0A0F500504A461F3827
:10151000002303A90390684600F06CFF8DE80700E4
:101520000004000C03D04FF0FF30410800E01046EB
:10153000B8F1000F03D00022009215461EE0751E80
:1015400005D4FFF7C9FE303262556D1EF9D5B3469A
:101550000122084302D000227F1C04E020783028BA
:1015600001D100227F1E002A099784D01DE0112D91
:1015700007DAFFF7B1FE303262556D1C50EA010206
:10158000F5D1084302D00098C8B10EE00021681ED2
:1015900005E0235C625C63542254401E491C814276
:1015A000F7DBAB46A81B401E0990002004F80B0097
:1015B0000B98099AC0F80880C0E9002B7AE7112639
:1015C0004FF0000857E72DE9F04F88460446D21D3A
:1015D00022F0070191B0D1E90001CDE90A0101F043
:1015E0006DF902460B98C00F01D02D2007E020684E
:1015F000810701D52B2002E0202101EAC000032A47
:10160000099001D0072A05DB03464146204600F039
:101610003FFB0BE12078800601D5E06900E0062061
:10162000B8F1650F814606D0B8F1660F18D0B8F151
:10163000670F70D131E00020B9F1110F009001DB8C
:10164000112301E009F101030AAA01A90CA8FFF77F
:10165000E2FEDDE90C70002609F10105834647E052
:1016600001204B4600904FF000470AAA01A90CA8A0
:10167000FFF7D1FEDDE90DB00C995D46002610B9EB
:1016800009F101000D18B9EB050003D4C0F1FF36D4
:1016900009F10105A5EB09002BE0B9F1010F01DA11
:1016A0004FF001090020B9F1110F0090484601DD0B
:1016B000112300E003460AAA01A90CA8FFF7ABFE1C
:1016C000DDE90C704D4600268346207800070AD4D9
:1016D000AB4500DA5D4601A8012D04DD411911F882
:1016E000011C302907D04F4502DA17F1040F04DA44
:1016F000012082460FE06D1EEEE7002F02DCED1B9D
:101700003E4403E0781CA84200DD7D1CB81B00F1BC
:10171000010A4FF000472078000703D4AA4501DBF7
:101720004FF0FF3A0021B7F1004F0DF143088DF85B
:10173000431024D002202B23002F01DA7F422D23D7
:101740000A21021EA0F1010000DC5FB197FBF1FC51
:1017500097FBF1F201FB1C7C17460CF1300C08F8EA
:1017600001CDEEE7A8F1010003702188090501D53C
:10177000452100E06521A0F1010800F8011C09984D
:101780000FA9A1EB0807FF1D00B10120411901EBD2
:10179000EA70A1693844081A401EA0612078C0068A
:1017A00002D42046FFF7EAF8099828B1D4E90121CC
:1017B0009047206A401C20622078C00622D520462F
:1017C000FFF7DCF81EE0002E04DBB34502DD01A8C4
:1017D000805D00E03020D4E901219047206A401C60
:1017E0002062761CAAF101005FEA000A0AD100F02B
:1017F0004BFAC0680168405CD4E901219047206A37
:10180000401C2062281EA5F10105DCDC07E0D4E9BC
:10181000012118F8010B9047206A401C2062381EF5
:10182000A7F10107F3DC2046FFF7BEF8032011B053
:1018300041E600002DE9F04F04460D46D21D22F08E
:10184000070089B0D0E900974846394601F036F8DC
:101850000246F80F01D02D2307E02068810701D54B
:101860002B2302E0202101EAC0038DF820300BB1C8
:10187000012000E00020032A824601D0072A04DB71
:101880002946204600F004FA3FE12078800601D482
:101890000D2500E0E569C7F30A560D2D49DA002150
:1018A0004FEA175B08464FF00000002F00F440009D
:1018B00007DA00EB80004FF4400100EBD07001EA42
:1018C00060008115012901DD4FF0FF3100224FEA50
:1018D000850CBCF1180F06D31346ACF118004FF07D
:1018E0008052C24003E04FF4801323FA0CF30CF152
:1018F0000C0CBCF1200F04D3ACF1200C09FA0CF055
:1019000001E007FA0CF000294FF0004801DD18B99A
:101910000FE00ED140450CD319EB02095F4121B90C
:10192000404502D19F4329EA0209BBEB175F00D073
:10193000761C2088000502D57B48784402E07A486E
:101940007844193808AA302302F80A30037C0AF1D7
:101950000101002E0AF1020A53546A4602DC4FF0DC
:10196000300101E04FF031014FF001088DF8001017
:1019700002D0A6F2FF3603E059EA470100D06B4ED1
:10198000002D02DC2178090704D54FF002082E2132
:101990008DF80110C44600210BE0C7F303433F015B
:1019A000C35C491C6D1E02F80830052908F10108C6
:1019B00001DA002DF1DC00210CE000EB1973491C69
:1019C0001B786D1E082902F808304FEA091908F142
:1019D000010801DA002DF0DC21688B0602D516E043
:1019E000A8F10108E04505DD02EB080313F8013C0E
:1019F000302BF5D0B8F1000F09DD02EB080313F826
:101A0000013C2E2B03D1090701D4A8F10108002DB8
:101A100005DD3E2102F808106D1E08F10108407C2A
:101A2000002E02F8080008F1010804DA2D207642A1
:101A300002F8080002E02B2002F808000A214FF407
:101A40007A70864208F101080BDB96FBF0F3303325
:101A500002F8083096FBF0F308F1010800FB13666A
:101A600001E0642E0CDB642096FBF0F3303302F8C7
:101A7000083096FBF0F308F1010800FB136601E063
:101A80000A2E06DB96FBF1F0303002F8080008F170
:101A9000010896FBF1F001FB1060303002F80800FD
:101AA000A16908F1010808EB050202EB0A00081A17
:101AB000A0612078C00602D42046FEF75FFF216AAD
:101AC00008AE01EB0A00206204E0D4E9012116F817
:101AD000010B9047BAF1010AF7D22078C00602D56F
:101AE0002046FEF74BFF6E4609E016F8010B3E2834
:101AF0000FD0D4E901219047206A401C2062B8F140
:101B00000108F2D22046FEF74FFF09B00320BDE8DE
:101B1000F08F206A2844206203E0D4E901213020BC
:101B200090476D1EEBD3F8E7EE27000002FCFFFFA5
:101B300010B5436913B1AFF3008001E0FEF757FF22
:101B4000012010BD127800F124010A7000224A70B1
:101B50000122EDE711684FF0FF32E9E710B5436964
:101B600013B1AFF3008001E0FEF7E0FF012010BDEC
:101B7000128800F1240182840022C2840122EDE750
:101B800011684FF0FF32E9E710B50146C2689007CF
:101B900003D0900607D5886A0AE0FEF76BFC0121A6
:101BA0000160881E10BD8B69486818440B69C01A13
:101BB00091F848301BB191F84910401A10BD11033B
:101BC000FCD50028FADD401E10BD70B516460C4647
:101BD000054600F051F8036893F80101012806D08A
:101BE000FF2C0FD8185D68B101202C7070BDD3F8A0
:101BF00007013246214603F2071303442846BDE895
:101C0000704018474FF0FF3070BD10B500F0F8F885
:101C1000BDE8104000F0EEB810B500F00BF9BDE8DB
:101C2000104000F0E7B80000124B694600F5805202
:101C30008A421A6001D8114670471960704730B562
:101C40000C4D6B46A3F580532C6822449A420FD862
:101C50009B1A02F5805003EBD37302EB63039842A7
:101C600000D91846C01D20F007020C60101B2A6026
:101C700030BD00001401001010B500F005F8001D83
:101C800010BD00BFCD200000004870477404001054
:101C90002DE9F0411F46044603260168072A01F496
:101CA000006004DB08B116A505E016A503E008B145
:101CB00015A500E015A521F010002060A069C01E48
:101CC000A0610FB1401EA0612046FEF757FE4FB144
:101CD000D4E9012138469047206A401C2062C01C8C
:101CE000206206E0206AFAE7D4E9012115F8010B29
:101CF0009047761EF8D22046FEF756FEBDE8F081EA
:101D00004E414E006E616E00494E4600696E66009F
:101D10002DE9F047814616468AB0354878440DC80B
:101D20008DE80D0032487844801C03AC0DC884E86F
:101D30000D0041F69B300844372190FBF1F290FBF7
:101D4000F1F5A5F1800501FB12041B3C02D56442AC
:101D5000012000E00020DFF898A080460027FA4428
:101D6000AAF1BE0A0EE0E0070AD03246684607EB49
:101D7000470101230AEB810100F03CFB8DE80700DD
:101D800064107F1C002CEED1194F7F44AE3F19E048
:101D9000E80715D007EB04100DF1180A90E80E00C3
:101DA0008AE80E00C068F04201D1981908903246C6
:101DB000012306A903A800F01DFB03AB83E807007D
:101DC0006D10641C002DE3D14FF0010332466946CB
:101DD000B8F1000F03A802D000F0F7FA01E000F01C
:101DE00009FBC9E90001C9F808200AB0BDE8F0877D
:101DF0009C240000002801D000F044B87047000087
:101E000010B5014602A000F043F8012010BD00000B
:101E100053494752545245443A20526564697265A9
:101E200063743A2063616E2774206F70656E3A2088
:101E30000000000010B5012805D0002103A000F02B
:101E400027F8012010BD09A1F8E7000053494752C7
:101E5000544D454D3A204F7574206F66206865617A
:101E600070206D656D6F7279000000003A20486542
:101E70006170206D656D6F727920636F727275701D
:101E80007465640001491820ABBEFEE7260002001D
:101E900070B505460C460A2000E06D1C00F011F8F4
:101EA00035B128780028F8D102E0641C00F009F868
:101EB00014B120780028F8D1BDE870400A20AFF3B3
:101EC000008008B569468DF800000320ABBE08BD50
:101ED00070475FEA400C08BF91F0000F4FEA8C2377
:101EE0004FEAC12243EA51514FEA1C5018BF00F596
:101EF000F0404FEA300018BF41F000415FEA6C5CEF
:101F000000F02980BCF1FF3F08BF40F080407047DF
:101F1000130C06BF12044FF0100C4FF0000C130E00
:101F200004BF12020CF1080C130F04BF12010CF1D4
:101F3000040C930F04BF92000CF1020CD30F04BFEA
:101F400052000CF1010C11464FF00002A0F11F00ED
:101F5000A0EB0C00704711F0004F08BF704731F044
:101F600000413FF4D5AF0B0C06BF09044FF0100C35
:101F70004FF0000C0B0E04BF09020CF1080C0B0F04
:101F800004BF09010CF1040C8B0F04BF89000CF194
:101F9000020CCB0F04BF49000CF1010CCCF1200363
:101FA000A0EB0C0022FA03F302FA0CF241EA03015F
:101FB00000F10100704720F07F4C80EA030023F01D
:101FC0007F47ACEB070303F57C5300F0004003F1BF
:101FD000FF032DE980494FEA154B09B44FEA14433A
:101FE00025EA0B4E24EA03480FF2042606EB1327DA
:101FF00049083E785FEA320203FB0667C7F500072F
:1020000007FB06F64FEA54374FEAD64606F10206BA
:1020100007FB066CCCF1005C4FEA1C472CEA074C2E
:1020200007FB06F40CFB06F504EB15464FEA961683
:1020300034BF00204FF000404FEAD13706FB07FCC9
:102040004FEA1C4C0CFB0BF7D21B03FB0CF761EBAC
:1020500007010CFB0EF7B0EB074072EB17420CFBCD
:1020600008F734BFA2EB0742B2EB074261EB17411E
:102070004FEA0C444FEA910706FB07FC4FEA1C4C61
:102080000CFB0BF7B0EBC74072EB573203FB0CF7BE
:1020900034BFA2EBC742B2EBC74261EB57310CFB36
:1020A0000EF7B0EBC70072EB57720CFB08F734BFAA
:1020B000A2EBC702B2EBC70261EB5771039F4FEA75
:1020C000816141EA921104EBCC044FEAD1374FEA27
:1020D000826206FB07FC42EA90124FEA80604FEAF8
:1020E0001C4C0CFB0BF7D21B03FB0CF761EB07013D
:1020F0000CFB0EF7B0EB074072EB17420CFB08F736
:1021000034BFA2EB0742B2EB074261EB17414FEA43
:102110008C554FEA910704EB9C2406FB07FC4FEA21
:102120001C4C0CFB0BF7B0EBC74072EB573203FBB8
:102130000CF734BFA2EBC742B2EBC74261EB573199
:102140000CFB0EF7B0EBC70072EB57720CFB08F7F5
:1021500034BFA2EBC702B2EBC70261EB577115EBBC
:102160004C254FEA816141EA92114FEA82624FEABF
:10217000D13742EA901206FB07FC44F100044FEA13
:1021800080604FEA1C4C0CFB0BF7D21B03FB0CF7D7
:1021900061EB07010CFB0EF7B0EB074072EB174247
:1021A0000CFB08F734BFA2EB0742B2EB074261EB2E
:1021B000174115EB1C154FEA813141EA92414FEA74
:1021C000823242EA90424FEA80304FEA0C7644F184
:1021D000000448EA03434EEA0B484FF0000EB2EB0E
:1021E000080C71EB030724BF624639464EEB0E0E16
:1021F0004FF0000B0018524149414BEB0B0BB2EB77
:10220000080C71EB03077BF1000B24BF62463946D3
:102210004EEB0E0E4FF0000B0018524149414BEBB4
:102220000B0BB2EB080C71EB03077BF1000B24BF27
:10223000624639464EEB0E0E51EA020718BF46F0D1
:10224000010616EB0E7655F1000254F1000103D59C
:10225000BDE88901BDE80088BDE88901BDE8004806
:10226000B619524141EB0101A3F10103704780808F
:102270007F7E7D7C7B7A79787776767574737271E0
:1022800071706F6E6E6D6C6C6B6A6A696868676698
:1022900066656464636362616160605F5F5E5E5D2A
:1022A0005D5C5C5B5B5A5A5959585857575656559E
:1022B00055555454535352525251515050504F4F00
:1022C0004F4E4E4D4D4D4C4C4C4B4B4B4A4A4A4950
:1022D0004949484848474747474646464545454493
:1022E0004444444343434342424242414141002B20
:1022F0009C4630D477002BD01CB54FEA370703B487
:102300004FF010004FF01001BAF1000F06D0BCF1F1
:10231000000FDCBF40F0080040F008014FF0000063
:102320000FBCBDE810400BF1010BBBF1010F08BF62
:102330005FEA170722BF12F1010211F101014FF00C
:10234000004143F1000300F0004043EA0000704701
:10235000F9D35708D0E746EA064613F1400F4FEA93
:1023600016461FDD13F1200FDFBF16430A4600217A
:1023700020335B42BED0C3F1200746EA064602FA8C
:1023800007F74FEA164646EA0706C3F1200722FA86
:1023900003F201FA07F721FA03F14FF0000342EAD2
:1023A0000702A7E746EA020646EA06464FEA16464D
:1023B00046EA0106BCBF46EA0646360C4FF000036B
:1023C0004FF000024FF0000194E72DE9804C9A464F
:1023D000934670B491E8380007C831EA400C48BF12
:1023E00034EA430C03D5FFF7E6FDFFF780FFF0BCAE
:1023F000BDE8008C2DE9804C9A46934670B491E874
:10240000380007C810F0804F08BF13F0804F03D189
:1024100000F005F8FFF76BFFF0BCBDE8008C20F082
:102420007F4780EA030023F07F4C07EB0C03A3F502
:102430007C5300F00040A3F1FE0392F0000F00F087
:10244000B38095F0000F00F077802DE901494FEA45
:1024500011404FEA144621EA004800FB06FC24EA3A
:10246000064708FB06F607FB08F800FB07F718EB22
:1024700006484CEB164C4FEA124B18EB07484FEA54
:1024800015464CEB174022EA0B4E0BFB06FC25EAE7
:1024900006470EFB06F607FB0EFE0BFB07F71EEBCF
:1024A000064E4CEB164C4FF000061EEB074E4CEB65
:1024B000174B18EB0B0840F1000018EB0E0B58EB14
:1024C000000840F100008F1A4FF000013CBFC943E3
:1024D000661B14BFB5EB040C00213CBFC943F61BBF
:1024E0004FEA17444EEA8E0E27EA04454FEA1C478E
:1024F00004FB07622CEA074C05FB07F70CFB05F60B
:1025000004FB0CFC16EB074642EB174216EB0C469D
:1025100042EB1C421BEB060658EB0202414146EA25
:102520009E0601D5BDE80189B619524141EB010172
:10253000A3F10103BDE801894FEA14454FEA1147B1
:1025400024EA054621EA074C05FB07F406FB07F7DA
:102550000CFB06F105FB0CFC11EB074144EB1744A7
:102560004FEA124711EB0C4144EB1C4422EA074CA2
:1025700005FB07F206FB07F70CFB06F605FB0CFC58
:1025800016EB074642EB174216EB0C4642EB1C4596
:102590006A1854F1000148BF7047B619524141EB27
:1025A0000101A3F10103704795F0000F37D04FEA06
:1025B00011424FEA144721EA024624EA074C02FB83
:1025C00007F106FB07F70CFB06F402FB0CFC14EB0F
:1025D000074441EB17414FEA154714EB0C4441EB1C
:1025E0001C4125EA074C02FB07F506FB07F70CFB2D
:1025F00006F602FB0CFC16EB074645EB174516EBFF
:102600000C4645EB1C42121951F1000148BF7047BE
:10261000B619524141EB0101A3F1010370474FEAA2
:1026200014454FEA114724EA054621EA074C05FB09
:1026300007F106FB07F70CFB06F24FF0000605FB5F
:102640000CFC12EB074241EB174112EB0C4251EB31
:102650001C4148BF7047921841EB0101A3F10103EF
:10266000704710B500F0D2FDBDE8104000F0DABCB4
:1026700025482021C0F8A011D0F8A01111F0200F9A
:1026800005D000BFD0F8A01111F0400FFAD0022100
:10269000C0F804110022C0F8A821C0F8AC21012123
:1026A000C0F80C110B23C0F88430AA23C0F88C307A
:1026B0004FF0550CC0F88CC0C0F88010C0F88C30BA
:1026C000C0F88CC0D0F8881011F0806FFAD00321C8
:1026D000C0F88010C0F88C30C0F88CC0D0F88810DA
:1026E00011F0407FFAD00521C0F808110749C0F861
:1026F000C410C0F8C821016843F23A0221F47041C5
:10270000114301607047000000C00F40DE872804BD
:1027100070B504460D462E4600BF00BF2068401C21
:1027200020B9242207A116A000F090FC00BF1EB122
:10273000E1686068086002E021696068086000BFC5
:1027400070BD00006D6265642F5441524745545F6F
:102750004C5043313736382F5441524745545F4E21
:1027600058502F5441524745545F4C5043313736EF
:10277000582F6770696F5F6F626A6563742E6800B7
:102780006F626A2D3E70696E20213D202850696E6F
:102790004E616D65294E430070B504460D462946CD
:1027A0002046FFF7B5FF204670BD007B7047000054
:1027B00070B506460D46154801F0E0FA1448046865
:1027C000F4B1A068C8B12A463146FDF78EFFA0B922
:1027D000A068FDF76BFFA8420FD10C4801680029E3
:1027E00004BF011D0160001D814204D05D22094922
:1027F000094800F02BFC204670BD6468002CE0D135
:10280000024801F0BBFA002070BD0000000100107A
:10281000FC000010E8410000D441000010B504465F
:10282000406818B1FFF7C1FF012801D0002010BD9A
:102830006068002818BF001F10BD10B5044640682E
:1028400010B1FFF7B2FF08B1002010BD606800288A
:1028500018BF001F10BD4068002818BF0120704736
:1028600010B54068002808BF10BDFFF79EFF002884
:102870000CBF0120002010BD0068704710B5044651
:1028800000202060606008782F280DD1487858B16A
:102890004B1C00212360226810782F2806D038B105
:1028A000501C491C2060F6E7204610BD501C2060DB
:1028B0001846FFF77DFF6060204610BD490050EAD2
:1028C000C12018BF04204A0D18BF40F0010040F29B
:1028D000FF72B2EB515F08BF40F00200012808BF51
:1028E0000520704770B5064D064C18212846FDF7A7
:1028F00079FF2146284600F039FB00BF70BD00007B
:102900003C03001032C0092010B500F009F810BDDA
:1029100030380A2801D2012070470020704700009B
:1029200002486A4620F00700704700008F0400103C
:1029300010B5054C21686006C422FDF721FF600632
:10294000206000F064FC10BD08ED00E00328BCBF6F
:102950000020704710B500220E4901EB800151F8AC
:102960000C0C41F80C2C68B10168496988470400D7
:102970005CBF002010BDFDF77DFD614201604FF09E
:10298000FF3010BDFDF776FD092101604FF0FF30EB
:1029900010BD00001C02001010B5032805DAFDF779
:1029A00069FD05210160881F10BD0D4901EB800004
:1029B00050F80C0C60B10168896A8847040058BF60
:1029C00010BDFDF757FD614201604FF0FF3010BDB3
:1029D000FDF750FD092101604FF0FF3010BD0000F0
:1029E0001C0200100328BCBF0120704710B50C4921
:1029F00001EB800050F80C0C58B10168C969884798
:102A0000040058BF10BDFDF735FD61420160002094
:102A100010BDFDF72FFD09210160002010BD000051
:102A20001C0200102DE9F0470E4684B0814675491E
:102A3000FDF700FF754D744C6F1E20B37449484676
:102A4000FDF7F8FE00282ED072494846FDF7F2FE49
:102A5000002838D0704C2068002804BF201D20605A
:102A6000251DA84204D05D226C496D4800F0EEFAA5
:102A700021686C4F002400BF57F8240098B3641CF1
:102A8000102CF9D332E0206848B92A463946664806
:102A900000F0E2FD4FF41651634800F0FBFC04B077
:102AA0000020BDE8F087206848B92A4639465E48CC
:102AB00000F0D2FD4FF416515B4800F0EBFC04B07F
:102AC0000120BDE8F087206848B92A4639465648B3
:102AD00000F0C2FD4FF41651534800F0DBFC04B087
:102AE0000220BDE8F087FFE7102C15D3FDF7C2FCEC
:102AF0001821016048480168002904BF011D0160D8
:102B0000A94204D05D224549454800F09FFA04B02F
:102B10004FF0FF30BDE8F0874FF0FF383E4847F8F0
:102B20002480002904BF011D01600068A84204D070
:102B30005D223A493A4800F089FA4FF0000ACDF890
:102B400008A099F800003A2808BFD9F8010010D071
:102B500049466846FFF792FE6846FFF77CFE13255C
:102B6000D8B36846FFF77CFE0028684608D0FFF718
:102B700064FE029047F8240004B0E01CBDE8F08732
:102B8000FFF74CFE48B316F0020F18BF02252ED0F7
:102B900016F00C0F18BF45F4007516F0040F18BF9F
:102BA00045F4806506466846FFF766FE02463068D3
:102BB0002B4602A9D0F808C03046E047002808BFDD
:102BC0000298D7D00546FDF755FC6942016047F8E9
:102BD00024A004B04046BDE8F087FFE7FDF74AFCBB
:102BE000056047F824A004B04046BDE8F08716F021
:102BF000040F18BF0125CBD116F0080F14BF09250B
:102C00000025C5E7803F0000D800001003C0092060
:102C1000873F00008F3F0000D0000010E841000017
:102C2000D44100001C020010E000001010B500228A
:102C3000032806DAFDF71EFC1D2101604FF0FF306E
:102C400010BD0D4B03EB800050F80C0C60B1036815
:102C50001B699847040058BF10BDFDF70BFC61428B
:102C600001604FF0FF3010BDFDF704FC0921016049
:102C70004FF0FF3010BD00001C02001070B515466B
:102C80000E46032818DA1948006848B9184A194846
:102C9000511E00F0E1FC4FF41651164800F0FAFB0B
:102CA0000024002D06D9315D124800F011FE641C8D
:102CB000A542F8D82C460FE00F4901EB800050F8F0
:102CC0000C0C58B10168CB6831469847040003D515
:102CD000FDF7D0FB61420160281B70BDFDF7CAFB08
:102CE000092101604FF0FF3070BD0000D8000010D6
:102CF00003C00920E00000101C02001070B5EFF3C3
:102D00001080012121EA000080F0010572B60D4C0F
:102D10006068002808BF25706068B0F1FF3F04D1EB
:102D2000432209A118A000F091F9606828B125B9E3
:102D3000472205A11EA000F089F96068401C606070
:102D400070BD0000F4000010433A5C6D6A5C776F60
:102D5000726B73706163655C626D5F777261705CEA
:102D6000313636355C6D6265642D6F735C706C61F5
:102D700074666F726D5C6D6265645F6372697469BD
:102D800063616C2E63000000696E74657272757009
:102D9000745F656E61626C655F636F756E7465729A
:102DA000203C2055494E5433325F4D4158000000BD
:102DB000696E74657272757074735F646973616251
:102DC0006C65640010B50E4C6068002808BF10BD2B
:102DD000EFF31080012121EA000090F0010F04D1EF
:102DE000582208A117A000F031F96068401E606009
:102DF0006068002806BF2078002810BD62B610BDAC
:102E0000F4000010433A5C6D6A5C776F726B73700C
:102E10006163655C626D5F777261705C3136363517
:102E20005C6D6265642D6F735C706C6174666F724B
:102E30006D5C6D6265645F637269746963616C2E59
:102E400063000000696E74657272757074735F64FC
:102E5000697361626C6564000FB4084810B501784D
:102E600000291CBF10BC5DF814FB0121017003A9EF
:102E7000029800F09FF9012000F002F8F000001025
:102E800004460848FDF785FB0748FDF782FB00F084
:102E9000BBF9002818BF00F0F7FA002C18BF00F0AB
:102EA000FFF8FEE7C80300101C040010004870473C
:102EB000D040000070B5044600680D46B0F1FF3FF9
:102EC00004D12C2209490AA000F0C0F845B1012D17
:102ED00018BF70BDA068016862681143016070BDD1
:102EE000A068016862689143F8E700003042000082
:102EF0006F626A2D3E70696E20213D202850696EF8
:102F00004E616D65294E430070B50C460546016063
:102F1000B1F1FF3F08BF70BD0021204600F078F9F5
:102F200004F01F00012101FA00F0686024F01F0086
:102F300000F11801E960091D296108396961A8607B
:102F400070BD70B5032605460C46FFF7DDFFB4F1F2
:102F5000FF3F08BF70BD00212846FFF7ABFF314699
:102F60002846BDE8704000F059B8000070B50D4625
:102F700004460226FFF7C8FFB5F1FF3F08BF70BD4A
:102F80002068B0F1FF3F04D124220849084800F02E
:102F90005DF821696068086001212046FFF78AFF1B
:102FA00031462046BDE8704000F038B88442000049
:102FB000043000002DE9F04104460E460227154674
:102FC000FFF7A2FFB6F1FF3F08BFBDE8F081206820
:102FD000B0F1FF3F04D1242209490AA000F036F8DD
:102FE0006068002D14BFE168216908600121204656
:102FF000FFF760FF39462046BDE8F04100F00EB80B
:10300000844200006F626A2D3E70696E20213D206F
:103010002850696E4E616D65294E4300006800F0CE
:1030200025B900000FE001210748FFF7B5FB4FF07D
:103030007E5000F04FFE00210348FFF7ADFB4FF03C
:103040007E5000F047FEEEE73C03001070B51446DA
:103050000D460646FFF752FE23462A46314603A098
:1030600000F07CF8BDE8704000F01AB86D6265644D
:10307000206173736572746174696F6E2066616933
:103080006C65643A2025732C2066696C653A2025AE
:10309000732C206C696E65202564200A00000000F6
:1030A00086B0FFF72BFE25496846FFF75FFF002437
:1030B0000098B0F1FF3F04D12422214921A0FFF75D
:1030C000C5FF039901980860962000F019FE00984A
:1030D000B0F1FF3F04D1242219491AA0FFF7B6FF2F
:1030E000049901980860962000F00AFE641C042CE4
:1030F000DEDB00240098B0F1FF3F04D12422104908
:1031000010A0FFF7A3FF0399019808604FF4C8705F
:1031100000F0F6FD0098B0F1FF3F04D124220849E9
:1031200008A0FFF793FF0499019808604FF4C87056
:1031300000F0E6FD641C042CDCDBB8E732C009209B
:10314000844200006F626A2D3E70696E20213D202E
:103150002850696E4E616D65294E43000FB470B5FD
:10316000A0B025AC249DFFF7C9FD23462A46802147
:103170006846FDF7D9F9051E10DD0B48006820B937
:103180000A4A0B48511E00F067FA00246E460848B0
:10319000315D00F09DFB641CAC42F8DBFFF712FED2
:1031A00020B070BC5DF814FBD800001003C00920EB
:1031B000E000001070B5A0B00C460546FFF79EFD7C
:1031C00023462A4680216846FDF7AEF9051E10DD2C
:1031D0000A48006820B90A4A0A48511E00F03CFA21
:1031E00000246E460748315D00F072FB641CAC425F
:1031F000F8DBFFF7E7FD20B070BD0000D80000103D
:1032000003C00920E000001000F036B97047704795
:1032100070B50D460446B0F1FF3F04D115220D49AB
:103220000DA0FFF713FFA4F10050A0F51C20010929
:103230000007C20E880000F1804000F530300168C0
:103240000323934099430160016805FA02F2114398
:10325000016070BDEC42000070696E20213D2028A5
:1032600050696E4E616D65294E43000070B50C4685
:103270000546B0F1FF3F04D120221A491AA0FFF7FA
:10328000E5FEA5F10050A0F51C204209920002F1D4
:10329000804202F5303200F01F03D2F868C0C4F358
:1032A000800101FA03F32CEA030CC2F868C0D2F8DB
:1032B00068C04CEA03039366002918BF70BD020979
:1032C0000007C10E900000F1804000F53030026C24
:1032D00003238B409A430264026C04FA01F1114308
:1032E000016470BDEC42000070696E20213D202811
:1032F00050696E4E616D65294E4300000A68B2F157
:10330000FF3F09D00A68824201D14868704751F8EE
:103310000C2FB2F1FF3FF5D14FF0FF3070470000A6
:10332000884208BF7047B0F1FF3F04BF08467047AE
:1033300010B5B1F1FF3F08BF10BD03A0FFF78CFD32
:103340004FF0FF3010BD000070696E6D6170206D30
:1033500069732D6D617463680000000010B5B0F1F1
:10336000FF3F08BF10BD0A68B2F1FF3F0CD00A68EA
:10337000824204D14C68B4F1FF3F0AD106E051F813
:103380000C2FB2F1FF3FF2D14FF0FF3402A0FFF754
:1033900063FD204610BD000070696E6D6170206E87
:1033A0006F7420666F756E6420666F722070657230
:1033B0006970686572616C0010B50446B0F1FF3F3A
:1033C00008BF10BD0868B0F1FF3F11D00868A042E7
:1033D00009D189682046FFF71BFF2046BDE8104051
:1033E0000221FFF743BF51F80C0FB0F1FF3FEDD1C1
:1033F000BDE8104001A0FFF72FBD0000636F756CA2
:1034000064206E6F742070696E6F75740000000028
:1034100070B5054600F0C0FB6C684FF0E040626894
:1034200082B1D4E9023CD2E900125E1A7CEB0206BA
:103430001CD2C91A62EB0C02B1F1E04372F1000236
:1034400038BF0846D4E902120C18286842F1000679
:10345000016920468847284600F09EFB6868D0E94D
:103460000212081B72EB060038BF70BD2868406965
:10347000BDE87040004700000248006800F001000D
:1034800070470000F0ED00E084B069461820ABBE44
:1034900004B070472DE9F05F0D46064600686349A9
:1034A000884204DD9B22624962A0FFF7CFFD3068AD
:1034B000A0F180416648B1F5404109D0B1F5804F97
:1034C00011D0B1F50C2F1BD0B1F5102F23D02EE069
:1034D000D0F8A81121F0C001C0F8A811D0F8A811A7
:1034E00041F0400109E0D0F8A81121F44071C0F882
:1034F000A811D0F8A81141F48071C0F8A81116E005
:10350000D0F8AC1121F44031C0F8AC11D0F8AC11B6
:1035100041F4803109E0D0F8AC1121F44021C0F829
:10352000AC11D0F8AC1141F48021C0F8AC1149487D
:103530002A014FF0000900684FF00108B0FBF2F1DA
:10354000B0FBF2F302FB13028FB24946002A57D0B8
:1035500001222C464FF0000C924603E04FF0000C85
:10356000002A47D902FB00FB4FF0004313EA4B0F40
:103570000AD053000CEB020B43430BFB05FBB3FBE0
:10358000FBF30AEB131309E093000CEB020B43432C
:103590000BFB05FBB3FBFBF30AEB5313C3F34F0326
:1035A000002B08BF0123BCF1000F18BF022B38BF4E
:1035B000022300FB02FB0CEB020E0EFB03FE4FEAA4
:1035C000CE0EBBFBFEFB0BF1010BD5EB5B0B48BF3B
:1035D000CBF1000BA34507DA5C461F469046E14657
:1035E000AB4508BF012105D00CF1010303F0FF0C2E
:1035F0009445B7D3521CD2B2102A01D20029ADD0C3
:103600003068017B41F0800101733168380A08712C
:1036100030680770316849EA081081F8280030687E
:10362000017B21F080010173BDE8F09F00C00940DB
:103630003C43000028696E74296F626A2D3E7561F3
:103640007274203C3D20554152545F33000000000D
:1036500000C00F40E80000102DE9F04788460446FE
:10366000174653494046FFF779FE0546514938460B
:10367000FFF774FE01462846FFF752FE0546B0F1FB
:10368000FF3F04D15C224C494CA0FFF7DFFCA5F1C1
:1036900080414E482560B1F5404104BFD0F8C410C8
:1036A00041F0080117D0B1F5804F04BFD0F8C41025
:1036B00041F010010FD0B1F50C2F04BFD0F8C410A9
:1036C00041F0807107D0B1F5102F04BFD0F8C410BD
:1036D00041F0007101D1C0F8C410206801260672C3
:1036E00020684FF00009C0F804904FF416512046AE
:1036F000FFF7D0FE002003230146024643EA800084
:1037000040EAC100216840EA021008732849404697
:10371000FFF752FE27493846FFF74EFEB8F1FF3F4C
:1037200003D000214046FFF7A1FDB7F1FF3F03D0D2
:1037300000213846FFF79AFDA5F18040B0F54040E2
:1037400008BFC4F804900FD0B0F5804F08BF666082
:103750000AD0B0F50C2F08BF022004D0B0F5102F0E
:1037600008BF032000D1606061684FF0FF30C1EBFB
:10377000C1021749034601EBC20250606268C2EB06
:10378000C20201EBC2010246C8610021204600F0DE
:10379000D3F8A5F18040B0F5404018BFBDE8F087F0
:1037A0000C480660D4E90012C0E90212BDE8F087B7
:1037B000983F0000044000003C43000028696E74FC
:1037C000297561727420213D204E430000C00F40D6
:1037D0005C020010D800001070B404680023A4F14B
:1037E00080459C46B5F5404504BF0523DFF8C8C0B9
:1037F00013D0B5F5804F04BF0623DFF8C0C00CD04E
:10380000B5F50C2F04BF0723DFF8B4C005D0B5F51C
:10381000102F04BF0823DFF8ACC0012505FA01F61C
:10382000B2B160683043606027480068002B00EB4D
:103830008300C0F840C0BCBF70BC704705FA03F0FD
:103840005909890001F1E021C1F8000170BC7047FD
:10385000012912D04268C2EBC20C1C4A02EBCC0216
:1038600092F836C092F835201CEB020F1CBF70BCDA
:103870007047002908BF012100D000216268B243CF
:1038800062600068406805FA01F108421CBF70BC24
:103890007047002BBCBF70BC704705FA03F0590994
:1038A000890001F1E021C1F88001BFF34F8FBFF320
:1038B0006F8F70BC70470000E13A0000F53A0000DD
:1038C000093B00001D3B000008ED00E05C02001019
:1038D00070B44268174CC2EBC20204EBC20200256E
:1038E000D2F81CC0BCF1FF3F0AD0166B3668136AD1
:1038F0001E42F7D103681B7D13F0400FF2D00BE09E
:1039000003681B7D13F0200F02D082F8345003E0CF
:1039100092F83430102BE5D2026811704068C0EB89
:10392000C00004EBC00090F83410491C80F834103B
:1039300070BC70475C0200102DE9F84F04460E463B
:10394000D4E90010DFF8ECB099469246594518BF0B
:10395000002506D19BF810105D4621F0C0018BF8C0
:103960001010DFF8D480C0EBC00008EBC0074FF0A8
:10397000FF31F961796061680022C1EBC10108EB98
:10398000C101204681F835201146FFF725FF002EA2
:1039900008BFBDE8F88F29495046FFF7AFFC0090FB
:1039A00027494846FFF7AAFC022E18BF032E13D161
:1039B000B9F1FF3F10D0584509D145B1287C40F0FE
:1039C000800028741E494846FFF7F6FC04E007F122
:1039D0001C004946FFF7B5FA012E1CBF032EBDE8B7
:1039E000F88FBAF1FF3F08BFBDE8F88F07202168C4
:1039F0000872009858450AD14DB1287C40F040002B
:103A000028745046BDE8F84F0C49FFF7D5BC381D67
:103A100000225146FFF7CEFA61680122C1EBC101D5
:103A200008EBC101204681F83520BDE8F84F0021A0
:103A3000FFF7D2BE000001405C02001070400000A1
:103A40009440000070B505460068C068804768680B
:103A5000416801B3D0E90264286840688047B042F9
:103A60002CBF0021012111B1001C44F1010469683F
:103A7000C1E9020469684A68D2E9003CC01A74EBE3
:103A80000C0008D3D06848606868016800291CBF32
:103A900090688847DBE72846BDE87040FFF7B8BC70
:103AA00010B504464068007C98B9206800688047DB
:103AB0006168002008606168486062680121C2E9AD
:103AC000020060680174204600F066F82046FFF7A7
:103AD0009FFC204600F060F86068806810BD000020
:103AE000034A90680021C0F3420000F021B80000B2
:103AF00000C00040034A90680121C0F3420000F07A
:103B000017B8000000000140034A90680221C0F38A
:103B1000420000F00DB8000000800940034A9068A0
:103B20000321C0F3420000F003B8000000C00940C8
:103B300030B4DFF85CC0C1EBC1040CEBC403012856
:103B400008BF012112D002281CBF30BC70470021E1
:103B50005868B0F1FF3F09D018699D68056093F877
:103B6000360018B9506820F0010050605CF834004D
:103B7000002804BF30BC7047002901BF93F83620ED
:103B8000002A30BC7047034A526830BC104700001E
:103B90005C020010D800001070B505464068D0E9FE
:103BA0000264286840688047B04234BF0121002188
:103BB00011B1001C44F101046968C1E9020470BD3F
:103BC00001490120086070470040094002484169EE
:103BD00021F0010141617047004009404FF0E021B0
:103BE0001020C1F80002704712480168002918BF70
:103BF000704701210160104850F8C42F42F40002C0
:103C000002600E48002202670D4A126892080223E1
:103C100043600C4BB2FBF3F2521EC26041600B4892
:103C20000949006801654FF0E0211020C1F800014A
:103C300070470000EC00001000C00F400040094039
:103C4000E800001040420F00513C000008ED00E089
:103C50000148FFF7F7BE0000D040000011491248AC
:103C60000A68EAB901220A60104951F8C43F43F4D6
:103C700000030B60002101670D49096889080223D0
:103C800043600C4BB1FBF3F1491EC16042600B492C
:103C9000094A09680A654FF0E0221021C2F80011B4
:103CA00080687047EC0000100040094000C00F40E1
:103CB000E800001040420F00513C000008ED00E019
:103CC00003498861486940F001004861704700007D
:103CD0000040094070B5094900F082F800F064F82E
:103CE0000446FFF7E3F80646FFF7DAFE05463046DE
:103CF000FFF7D6FE401BA042F9D370BD00247449E3
:103D000070B54FF47A7100FB01F5FFF7CFF8064666
:103D1000FFF7C6FE04463046FFF7C2FE001BA8426E
:103D2000F9D370BD10B500290AD00878002807D053
:103D300005487844FCF77EFD002801D0002010BD26
:103D40000248784410BD00007E06000076060000A0
:103D500010B500290AD00878002807D00548784413
:103D6000FCF768FD002801D0002010BD024878440F
:103D700010BD00006E0600006606000010B5044687
:103D80000068002806BF201D20602068211D884291
:103D900004D05D2202490348FFF758F9206810BD9E
:103DA000E8410000D441000041000B0ED3F19E0217
:103DB00008D950F400034FEA032323FA02F048BF66
:103DC0004042704710B500F08CF800BF4992248043
:103DD000002070476FF0004282EA20007047000028
:103DE0004FF47F0C1CEAD0121EBF1CEAD11392EADA
:103DF0000C0F93EA0C0F00F0478090EA010F48BFC8
:103E000042F480724FF0004C4CEA00204CEA012151
:103E100002EB0302A0FB0113A2F50002002918BF68
:103E200043F001035B0028BF4FEA330342EB224219
:103E30005FEA132C4CEBC2502EBFBCEB436FB2F5C4
:103E40007C0F70474FEA036CBCF1004F08BF20F0B5
:103E50000100B2F57C0F38BF70470BD582F0FF022E
:103E600012F5803FC8BF704700F1C040D8BF00F0D6
:103E70000040704700F5000C5FEA4C0C48BF7047EB
:103E8000B0F1C04000F073B890EA010F0CEAD11312
:103E900048BF42F48072624538BF634504D280EA6D
:103EA000010000F00040704710B500F01AF800BFA4
:103EB0008900013E00F007B800F009B85FEA410C44
:103EC0005FEA1C6C08D080EA010000F050B85FEA9D
:103ED000400C5FEA1C6CF6D14FF00040A0F580006A
:103EE00070470EF1020E2EF0030E5EF8044B2442D2
:103EF00004D44FEA4102B2F17F4F11D84FEA400398
:103F0000B3F17F4F0CD80ED14FEAD07CB2F17F4F86
:103F10000CEB4C0C0CF1020C08BF4CEBD17C04E018
:103F20004FF0080C01E04FEAD17C0CEB4C0324FA73
:103F300003F404F00704B4F1040C06D20EEB840C75
:103F4000BDE810404CF0010C6047DFE80CF00708BA
:103F500002024FF00040A0F5800010BD084642006C
:103F600018BFD2F1807288BF00F0004010BDFF2161
:103F700041EAD050C0057047FDF725BBFDF75ABC9C
:103F80002F737464696E002F7374646F7574002FDF
:103F9000737464657272000000C0092000C009409B
:103FA0000200000002C0092000C000400100000023
:103FB0000AC0092000800940010000000FC009204C
:103FC000000001400100000019C0092000C00940A4
:103FD0000300000040C00920000001400200000072
:103FE00048C0092000800940020000009CC0092050
:103FF00000C0094003000000FFFFFFFFFFFFFFFFBD
:104000000000000001C0092000C0094002000000BB
:1040100003C0092000C00040010000000BC00920BF
:10402000008009400100000010C00920000001408C
:10403000010000001AC0092000C009400300000070
:1040400041C00920000001400200000049C00920D1
:1040500000800940020000009DC0092000C0094006
:1040600003000000FFFFFFFFFFFFFFFF0000000055
:1040700016C00920000001400100000047C00920CF
:104080000000014002000000FFFFFFFFFFFFFFFFF5
:104090000000000011C009200000014001000000E4
:1040A00042C009200000014002000000FFFFFFFFA6
:1040B000FFFFFFFF00000000E93B00005D3C000047
:1040C000CD3B0000C13B0000C13C0000DD3B0000D7
:1040D000B84000005803001000000000000000007D
:1040E000303132333435363738394142434445462E
:1040F0004030580030313233343536373839616228
:104100006364656640307800040000080000000029
:104110000000000200010000103031323334353627
:1041200037383961626364656678700030313233E4
:1041300034353637383941424344454658500000FB
:1041400002400000000000A0000000000540000048
:10415000000000C8000000000C4000000000409C6F
:1041600000000000194000000020BCBE000000005C
:1041700034400000BFC91B8E00000004B5400000A1
:10418000504BCFD06607E2CF010000006C41000029
:104190003E8251AADFEEA73401000000D9420000A0
:1041A000DCB5A0E23A301F97FFFFFFFFB4450000E7
:1041B000FD25A0C8E9A3C14FFFFFFFFFFF3F00009F
:1041C0000000008000000000FF3F000000000080B1
:1041D000000000005F707472203D3D202854202AAA
:1041E00029265F6461746100433A2F6D6A2F776FEF
:1041F000726B73706163652F626D5F777261702F90
:10420000313636352F6D6265642D6F732F425549F7
:104210004C442F6D6265642F706C6174666F726DB3
:104220002F53696E676C65746F6E5074722E6800E0
:10423000433A5C6D6A5C776F726B73706163655C47
:10424000626D5F777261705C313636355C6D6265C8
:10425000642D6F735C746172676574735C54415252
:104260004745545F4E58505C5441524745545F4C4B
:104270005043313736585C6770696F5F6170692EE3
:1042800063000000433A2F6D6A2F776F726B737073
:104290006163652F626D5F777261702F31363635DD
:1042A0002F6D6265642D6F732F4255494C442F6DFD
:1042B0006265642F5441524745545F4C5043313737
:1042C00036382F5441524745545F4E58502F544171
:1042D000524745545F4C5043313736582F67706909
:1042E0006F5F6F626A6563742E680000433A5C6DAD
:1042F0006A5C776F726B73706163655C626D5F7728
:104300007261705C313636355C6D6265642D6F7339
:104310005C746172676574735C5441524745545FC5
:104320004E58505C5441524745545F4C50433137CE
:1043300036585C70696E6D61702E6300433A5C6D37
:104340006A5C776F726B73706163655C626D5F77D7
:104350007261705C313636355C6D6265642D6F73E9
:104360005C746172676574735C5441524745545F75
:104370004E58505C5441524745545F4C504331377E
:1043800036585C73657269616C5F6170692E630099
:10439000E0440000C8000010500000003C03000092
:1043A00030450000180100107003000058030000A1
:1043B0001C00000043000000F8FFFFFF0C0000009D
:1043C0000E0000000F0000002E0000001001000091
:1043D00043000000F8FFFFFF0040404040404040E5
:1043E00040404141414141404040404040404040C8
:1043F000404040404040404040050202020202026C
:1044000002020202020202020220202020202020BA
:1044100020202002020202020202909090909090CE
:10442000101010101010101010101010101010108C
:104430001010101002020202020288888888888800
:1044400008080808080808080808080808080808EC
:1044500008080808020202024000000000000000F4
:10446000000000000000000000000000000000004C
:10447000000000000000000000000000000000003C
:10448000000000000000000000000000000000002C
:10449000000000000000000000000000000000001C
:1044A000000000000000000000000000000000000C
:1044B00000000000000000000000000000000000FC
:1044C00000000000000000000000000000000000EC
:1044D00000000000000000000000000009E4FFFFF1
:1044E00000000000000000000000000000000000CC
:1044F00000000000000000000000000000000000BC
:1045000000D8B80500000000000000000000000016
:10451000000000000000000000000000000000009B
:10452000000000000000000000000000000000008B
:0400000500000301F3
:00000001FF
